{
  "contractName": "NFTCollection",
  "abi": [
    {
      "inputs": [
        {
          "internalType": "string",
          "name": "baseURI",
          "type": "string"
        },
        {
          "internalType": "string",
          "name": "name",
          "type": "string"
        },
        {
          "internalType": "string",
          "name": "symbol",
          "type": "string"
        }
      ],
      "stateMutability": "nonpayable",
      "type": "constructor"
    },
    {
      "anonymous": false,
      "inputs": [
        {
          "indexed": true,
          "internalType": "address",
          "name": "owner",
          "type": "address"
        },
        {
          "indexed": true,
          "internalType": "address",
          "name": "approved",
          "type": "address"
        },
        {
          "indexed": true,
          "internalType": "uint256",
          "name": "tokenId",
          "type": "uint256"
        }
      ],
      "name": "Approval",
      "type": "event"
    },
    {
      "anonymous": false,
      "inputs": [
        {
          "indexed": true,
          "internalType": "address",
          "name": "owner",
          "type": "address"
        },
        {
          "indexed": true,
          "internalType": "address",
          "name": "operator",
          "type": "address"
        },
        {
          "indexed": false,
          "internalType": "bool",
          "name": "approved",
          "type": "bool"
        }
      ],
      "name": "ApprovalForAll",
      "type": "event"
    },
    {
      "anonymous": false,
      "inputs": [
        {
          "indexed": true,
          "internalType": "address",
          "name": "previousOwner",
          "type": "address"
        },
        {
          "indexed": true,
          "internalType": "address",
          "name": "newOwner",
          "type": "address"
        }
      ],
      "name": "OwnershipTransferred",
      "type": "event"
    },
    {
      "anonymous": false,
      "inputs": [
        {
          "indexed": true,
          "internalType": "address",
          "name": "from",
          "type": "address"
        },
        {
          "indexed": true,
          "internalType": "address",
          "name": "to",
          "type": "address"
        },
        {
          "indexed": true,
          "internalType": "uint256",
          "name": "tokenId",
          "type": "uint256"
        }
      ],
      "name": "Transfer",
      "type": "event"
    },
    {
      "inputs": [],
      "name": "MAX_PER_MINT",
      "outputs": [
        {
          "internalType": "uint256",
          "name": "",
          "type": "uint256"
        }
      ],
      "stateMutability": "view",
      "type": "function"
    },
    {
      "inputs": [],
      "name": "MAX_SUPPLY",
      "outputs": [
        {
          "internalType": "uint256",
          "name": "",
          "type": "uint256"
        }
      ],
      "stateMutability": "view",
      "type": "function"
    },
    {
      "inputs": [],
      "name": "PRICE",
      "outputs": [
        {
          "internalType": "uint256",
          "name": "",
          "type": "uint256"
        }
      ],
      "stateMutability": "view",
      "type": "function"
    },
    {
      "inputs": [
        {
          "internalType": "address",
          "name": "to",
          "type": "address"
        },
        {
          "internalType": "uint256",
          "name": "tokenId",
          "type": "uint256"
        }
      ],
      "name": "approve",
      "outputs": [],
      "stateMutability": "nonpayable",
      "type": "function"
    },
    {
      "inputs": [
        {
          "internalType": "address",
          "name": "owner",
          "type": "address"
        }
      ],
      "name": "balanceOf",
      "outputs": [
        {
          "internalType": "uint256",
          "name": "",
          "type": "uint256"
        }
      ],
      "stateMutability": "view",
      "type": "function"
    },
    {
      "inputs": [],
      "name": "baseTokenURI",
      "outputs": [
        {
          "internalType": "string",
          "name": "",
          "type": "string"
        }
      ],
      "stateMutability": "view",
      "type": "function"
    },
    {
      "inputs": [
        {
          "internalType": "uint256",
          "name": "tokenId",
          "type": "uint256"
        }
      ],
      "name": "getApproved",
      "outputs": [
        {
          "internalType": "address",
          "name": "",
          "type": "address"
        }
      ],
      "stateMutability": "view",
      "type": "function"
    },
    {
      "inputs": [
        {
          "internalType": "address",
          "name": "owner",
          "type": "address"
        },
        {
          "internalType": "address",
          "name": "operator",
          "type": "address"
        }
      ],
      "name": "isApprovedForAll",
      "outputs": [
        {
          "internalType": "bool",
          "name": "",
          "type": "bool"
        }
      ],
      "stateMutability": "view",
      "type": "function"
    },
    {
      "inputs": [],
      "name": "name",
      "outputs": [
        {
          "internalType": "string",
          "name": "",
          "type": "string"
        }
      ],
      "stateMutability": "view",
      "type": "function"
    },
    {
      "inputs": [],
      "name": "owner",
      "outputs": [
        {
          "internalType": "address",
          "name": "",
          "type": "address"
        }
      ],
      "stateMutability": "view",
      "type": "function"
    },
    {
      "inputs": [
        {
          "internalType": "uint256",
          "name": "tokenId",
          "type": "uint256"
        }
      ],
      "name": "ownerOf",
      "outputs": [
        {
          "internalType": "address",
          "name": "",
          "type": "address"
        }
      ],
      "stateMutability": "view",
      "type": "function"
    },
    {
      "inputs": [],
      "name": "renounceOwnership",
      "outputs": [],
      "stateMutability": "nonpayable",
      "type": "function"
    },
    {
      "inputs": [
        {
          "internalType": "address",
          "name": "from",
          "type": "address"
        },
        {
          "internalType": "address",
          "name": "to",
          "type": "address"
        },
        {
          "internalType": "uint256",
          "name": "tokenId",
          "type": "uint256"
        }
      ],
      "name": "safeTransferFrom",
      "outputs": [],
      "stateMutability": "nonpayable",
      "type": "function"
    },
    {
      "inputs": [
        {
          "internalType": "address",
          "name": "from",
          "type": "address"
        },
        {
          "internalType": "address",
          "name": "to",
          "type": "address"
        },
        {
          "internalType": "uint256",
          "name": "tokenId",
          "type": "uint256"
        },
        {
          "internalType": "bytes",
          "name": "_data",
          "type": "bytes"
        }
      ],
      "name": "safeTransferFrom",
      "outputs": [],
      "stateMutability": "nonpayable",
      "type": "function"
    },
    {
      "inputs": [
        {
          "internalType": "address",
          "name": "operator",
          "type": "address"
        },
        {
          "internalType": "bool",
          "name": "approved",
          "type": "bool"
        }
      ],
      "name": "setApprovalForAll",
      "outputs": [],
      "stateMutability": "nonpayable",
      "type": "function"
    },
    {
      "inputs": [
        {
          "internalType": "bytes4",
          "name": "interfaceId",
          "type": "bytes4"
        }
      ],
      "name": "supportsInterface",
      "outputs": [
        {
          "internalType": "bool",
          "name": "",
          "type": "bool"
        }
      ],
      "stateMutability": "view",
      "type": "function"
    },
    {
      "inputs": [],
      "name": "symbol",
      "outputs": [
        {
          "internalType": "string",
          "name": "",
          "type": "string"
        }
      ],
      "stateMutability": "view",
      "type": "function"
    },
    {
      "inputs": [
        {
          "internalType": "uint256",
          "name": "index",
          "type": "uint256"
        }
      ],
      "name": "tokenByIndex",
      "outputs": [
        {
          "internalType": "uint256",
          "name": "",
          "type": "uint256"
        }
      ],
      "stateMutability": "view",
      "type": "function"
    },
    {
      "inputs": [
        {
          "internalType": "address",
          "name": "owner",
          "type": "address"
        },
        {
          "internalType": "uint256",
          "name": "index",
          "type": "uint256"
        }
      ],
      "name": "tokenOfOwnerByIndex",
      "outputs": [
        {
          "internalType": "uint256",
          "name": "",
          "type": "uint256"
        }
      ],
      "stateMutability": "view",
      "type": "function"
    },
    {
      "inputs": [],
      "name": "tokenOwner",
      "outputs": [
        {
          "internalType": "address",
          "name": "",
          "type": "address"
        }
      ],
      "stateMutability": "view",
      "type": "function"
    },
    {
      "inputs": [],
      "name": "totalSupply",
      "outputs": [
        {
          "internalType": "uint256",
          "name": "",
          "type": "uint256"
        }
      ],
      "stateMutability": "view",
      "type": "function"
    },
    {
      "inputs": [
        {
          "internalType": "address",
          "name": "from",
          "type": "address"
        },
        {
          "internalType": "address",
          "name": "to",
          "type": "address"
        },
        {
          "internalType": "uint256",
          "name": "tokenId",
          "type": "uint256"
        }
      ],
      "name": "transferFrom",
      "outputs": [],
      "stateMutability": "nonpayable",
      "type": "function"
    },
    {
      "inputs": [
        {
          "internalType": "address",
          "name": "newOwner",
          "type": "address"
        }
      ],
      "name": "transferOwnership",
      "outputs": [],
      "stateMutability": "nonpayable",
      "type": "function"
    },
    {
      "inputs": [],
      "name": "getOwnerAddress",
      "outputs": [
        {
          "internalType": "address",
          "name": "",
          "type": "address"
        }
      ],
      "stateMutability": "view",
      "type": "function"
    },
    {
      "inputs": [
        {
          "internalType": "string",
          "name": "_baseTokenURI",
          "type": "string"
        }
      ],
      "name": "setBaseURI",
      "outputs": [],
      "stateMutability": "nonpayable",
      "type": "function"
    },
    {
      "inputs": [],
      "name": "random",
      "outputs": [
        {
          "internalType": "uint256",
          "name": "",
          "type": "uint256"
        }
      ],
      "stateMutability": "nonpayable",
      "type": "function"
    },
    {
      "inputs": [],
      "name": "buyEgg",
      "outputs": [
        {
          "internalType": "uint256",
          "name": "",
          "type": "uint256"
        }
      ],
      "stateMutability": "nonpayable",
      "type": "function"
    },
    {
      "inputs": [
        {
          "internalType": "uint256",
          "name": "_count",
          "type": "uint256"
        }
      ],
      "name": "mintNFTs",
      "outputs": [],
      "stateMutability": "payable",
      "type": "function"
    },
    {
      "inputs": [
        {
          "internalType": "uint256",
          "name": "tokenId",
          "type": "uint256"
        }
      ],
      "name": "tokenURI",
      "outputs": [
        {
          "internalType": "string",
          "name": "",
          "type": "string"
        }
      ],
      "stateMutability": "view",
      "type": "function"
    },
    {
      "inputs": [
        {
          "internalType": "address",
          "name": "_owner",
          "type": "address"
        }
      ],
      "name": "tokensOfOwner",
      "outputs": [
        {
          "internalType": "uint256[]",
          "name": "",
          "type": "uint256[]"
        }
      ],
      "stateMutability": "view",
      "type": "function"
    },
    {
      "inputs": [],
      "name": "withdraw",
      "outputs": [],
      "stateMutability": "payable",
      "type": "function"
    },
    {
      "inputs": [
        {
          "internalType": "uint256",
          "name": "_count",
          "type": "uint256"
        }
      ],
      "name": "reserveNFTs",
      "outputs": [],
      "stateMutability": "nonpayable",
      "type": "function"
    }
  ],
  "bytecode": "0x60806040526000600d553480156200001657600080fd5b50604051620047b4380380620047b483398181016040528101906200003c9190620004dd565b818181600090805190602001906200005692919062000290565b5080600190805190602001906200006f92919062000290565b5050506200009262000086620000ed60201b60201c565b620000f560201b60201c565b620000a383620001bb60201b60201c565b33600c60006101000a81548173ffffffffffffffffffffffffffffffffffffffff021916908373ffffffffffffffffffffffffffffffffffffffff1602179055505050506200067d565b600033905090565b6000600a60009054906101000a900473ffffffffffffffffffffffffffffffffffffffff16905081600a60006101000a81548173ffffffffffffffffffffffffffffffffffffffff021916908373ffffffffffffffffffffffffffffffffffffffff1602179055508173ffffffffffffffffffffffffffffffffffffffff168173ffffffffffffffffffffffffffffffffffffffff167f8be0079c531659141344cd1fd0a4f28419497f9722a3daafe3b4186f6b6457e060405160405180910390a35050565b620001cb620000ed60201b60201c565b73ffffffffffffffffffffffffffffffffffffffff16620001f16200026660201b60201c565b73ffffffffffffffffffffffffffffffffffffffff16146200024a576040517f08c379a00000000000000000000000000000000000000000000000000000000081526004016200024190620005f7565b60405180910390fd5b80600e90805190602001906200026292919062000290565b5050565b6000600a60009054906101000a900473ffffffffffffffffffffffffffffffffffffffff16905090565b8280546200029e9062000648565b90600052602060002090601f016020900481019282620002c257600085556200030e565b82601f10620002dd57805160ff19168380011785556200030e565b828001600101855582156200030e579182015b828111156200030d578251825591602001919060010190620002f0565b5b5090506200031d919062000321565b5090565b5b808211156200033c57600081600090555060010162000322565b5090565b6000604051905090565b600080fd5b600080fd5b600080fd5b600080fd5b6000601f19601f8301169050919050565b7f4e487b7100000000000000000000000000000000000000000000000000000000600052604160045260246000fd5b620003a9826200035e565b810181811067ffffffffffffffff82111715620003cb57620003ca6200036f565b5b80604052505050565b6000620003e062000340565b9050620003ee82826200039e565b919050565b600067ffffffffffffffff8211156200041157620004106200036f565b5b6200041c826200035e565b9050602081019050919050565b60005b83811015620004495780820151818401526020810190506200042c565b8381111562000459576000848401525b50505050565b6000620004766200047084620003f3565b620003d4565b90508281526020810184848401111562000495576200049462000359565b5b620004a284828562000429565b509392505050565b600082601f830112620004c257620004c162000354565b5b8151620004d48482602086016200045f565b91505092915050565b600080600060608486031215620004f957620004f86200034a565b5b600084015167ffffffffffffffff8111156200051a57620005196200034f565b5b6200052886828701620004aa565b935050602084015167ffffffffffffffff8111156200054c576200054b6200034f565b5b6200055a86828701620004aa565b925050604084015167ffffffffffffffff8111156200057e576200057d6200034f565b5b6200058c86828701620004aa565b9150509250925092565b600082825260208201905092915050565b7f4f776e61626c653a2063616c6c6572206973206e6f7420746865206f776e6572600082015250565b6000620005df60208362000596565b9150620005ec82620005a7565b602082019050919050565b600060208201905081810360008301526200061281620005d0565b9050919050565b7f4e487b7100000000000000000000000000000000000000000000000000000000600052602260045260246000fd5b600060028204905060018216806200066157607f821691505b60208210810362000677576200067662000619565b5b50919050565b614127806200068d6000396000f3fe6080604052600436106101e35760003560e01c80636352211e11610102578063a22cb46511610095578063c87b56dd11610064578063c87b56dd146106c8578063d547cfb714610705578063e985e9c514610730578063f2fde38b1461076d576101e3565b8063a22cb46514610622578063a3e676101461064b578063b88d4fde14610676578063bc7df0911461069f576101e3565b80638462151c116100d15780638462151c146105645780638d859f3e146105a15780638da5cb5b146105cc57806395d89b41146105f7576101e3565b80636352211e146104a857806370a08231146104e5578063715018a6146105225780637d63550214610539576101e3565b80632f745c591161017a57806342842e0e1161014957806342842e0e146103ee5780634f6ccce71461041757806355f804b3146104545780635ec01e4d1461047d576101e3565b80632f745c591461036057806332cb6b0c1461039d5780633b4b1381146103c85780633ccfd60b146103e4576101e3565b806309d42b30116101b657806309d42b30146102b65780630c4f65bd146102e157806318160ddd1461030c57806323b872dd14610337576101e3565b806301ffc9a7146101e857806306fdde0314610225578063081812fc14610250578063095ea7b31461028d575b600080fd5b3480156101f457600080fd5b5061020f600480360381019061020a9190612a04565b610796565b60405161021c9190612a4c565b60405180910390f35b34801561023157600080fd5b5061023a610810565b6040516102479190612b00565b60405180910390f35b34801561025c57600080fd5b5061027760048036038101906102729190612b58565b6108a2565b6040516102849190612bc6565b60405180910390f35b34801561029957600080fd5b506102b460048036038101906102af9190612c0d565b610927565b005b3480156102c257600080fd5b506102cb610a3e565b6040516102d89190612c5c565b60405180910390f35b3480156102ed57600080fd5b506102f6610a43565b6040516103039190612bc6565b60405180910390f35b34801561031857600080fd5b50610321610a6d565b60405161032e9190612c5c565b60405180910390f35b34801561034357600080fd5b5061035e60048036038101906103599190612c77565b610a7a565b005b34801561036c57600080fd5b5061038760048036038101906103829190612c0d565b610ada565b6040516103949190612c5c565b60405180910390f35b3480156103a957600080fd5b506103b2610b7f565b6040516103bf9190612c5c565b60405180910390f35b6103e260048036038101906103dd9190612b58565b610b84565b005b6103ec610cbf565b005b3480156103fa57600080fd5b5061041560048036038101906104109190612c77565b610e33565b005b34801561042357600080fd5b5061043e60048036038101906104399190612b58565b610e53565b60405161044b9190612c5c565b60405180910390f35b34801561046057600080fd5b5061047b60048036038101906104769190612dff565b610ec4565b005b34801561048957600080fd5b50610492610f5a565b60405161049f9190612c5c565b60405180910390f35b3480156104b457600080fd5b506104cf60048036038101906104ca9190612b58565b610fa7565b6040516104dc9190612bc6565b60405180910390f35b3480156104f157600080fd5b5061050c60048036038101906105079190612e48565b611058565b6040516105199190612c5c565b60405180910390f35b34801561052e57600080fd5b5061053761110f565b005b34801561054557600080fd5b5061054e611197565b60405161055b9190612c5c565b60405180910390f35b34801561057057600080fd5b5061058b60048036038101906105869190612e48565b611272565b6040516105989190612f33565b60405180910390f35b3480156105ad57600080fd5b506105b6611320565b6040516105c39190612c5c565b60405180910390f35b3480156105d857600080fd5b506105e161132a565b6040516105ee9190612bc6565b60405180910390f35b34801561060357600080fd5b5061060c611354565b6040516106199190612b00565b60405180910390f35b34801561062e57600080fd5b5061064960048036038101906106449190612f81565b6113e6565b005b34801561065757600080fd5b506106606113fc565b60405161066d9190612bc6565b60405180910390f35b34801561068257600080fd5b5061069d60048036038101906106989190613062565b611422565b005b3480156106ab57600080fd5b506106c660048036038101906106c19190612b58565b611484565b005b3480156106d457600080fd5b506106ef60048036038101906106ea9190612b58565b61158f565b6040516106fc9190612b00565b60405180910390f35b34801561071157600080fd5b5061071a6115ce565b6040516107279190612b00565b60405180910390f35b34801561073c57600080fd5b50610757600480360381019061075291906130e5565b61165c565b6040516107649190612a4c565b60405180910390f35b34801561077957600080fd5b50610794600480360381019061078f9190612e48565b6116f0565b005b60007f780e9d63000000000000000000000000000000000000000000000000000000007bffffffffffffffffffffffffffffffffffffffffffffffffffffffff1916827bffffffffffffffffffffffffffffffffffffffffffffffffffffffff191614806108095750610808826117e7565b5b9050919050565b60606000805461081f90613154565b80601f016020809104026020016040519081016040528092919081815260200182805461084b90613154565b80156108985780601f1061086d57610100808354040283529160200191610898565b820191906000526020600020905b81548152906001019060200180831161087b57829003601f168201915b5050505050905090565b60006108ad826118c9565b6108ec576040517f08c379a00000000000000000000000000000000000000000000000000000000081526004016108e3906131f7565b60405180910390fd5b6004600083815260200190815260200160002060009054906101000a900473ffffffffffffffffffffffffffffffffffffffff169050919050565b600061093282610fa7565b90508073ffffffffffffffffffffffffffffffffffffffff168373ffffffffffffffffffffffffffffffffffffffff16036109a2576040517f08c379a000000000000000000000000000000000000000000000000000000000815260040161099990613289565b60405180910390fd5b8073ffffffffffffffffffffffffffffffffffffffff166109c1611935565b73ffffffffffffffffffffffffffffffffffffffff1614806109f057506109ef816109ea611935565b61165c565b5b610a2f576040517f08c379a0000000000000000000000000000000000000000000000000000000008152600401610a269061331b565b60405180910390fd5b610a39838361193d565b505050565b600581565b6000600c60009054906101000a900473ffffffffffffffffffffffffffffffffffffffff16905090565b6000600880549050905090565b610a8b610a85611935565b826119f6565b610aca576040517f08c379a0000000000000000000000000000000000000000000000000000000008152600401610ac1906133ad565b60405180910390fd5b610ad5838383611ad4565b505050565b6000610ae583611058565b8210610b26576040517f08c379a0000000000000000000000000000000000000000000000000000000008152600401610b1d9061343f565b60405180910390fd5b600660008473ffffffffffffffffffffffffffffffffffffffff1673ffffffffffffffffffffffffffffffffffffffff168152602001908152602001600020600083815260200190815260200160002054905092915050565b600a81565b6000610b90600b611d3a565b9050600a610ba78383611d4890919063ffffffff16565b1115610be8576040517f08c379a0000000000000000000000000000000000000000000000000000000008152600401610bdf906134ab565b60405180910390fd5b600082118015610bf9575060058211155b610c38576040517f08c379a0000000000000000000000000000000000000000000000000000000008152600401610c2f9061353d565b60405180910390fd5b610c51826509184e72a000611d5e90919063ffffffff16565b341015610c93576040517f08c379a0000000000000000000000000000000000000000000000000000000008152600401610c8a906135cf565b60405180910390fd5b60005b82811015610cba57610ca6611d74565b508080610cb29061361e565b915050610c96565b505050565b610cc7611935565b73ffffffffffffffffffffffffffffffffffffffff16610ce561132a565b73ffffffffffffffffffffffffffffffffffffffff1614610d3b576040517f08c379a0000000000000000000000000000000000000000000000000000000008152600401610d32906136b2565b60405180910390fd5b600047905060008111610d83576040517f08c379a0000000000000000000000000000000000000000000000000000000008152600401610d7a9061371e565b60405180910390fd5b60003373ffffffffffffffffffffffffffffffffffffffff1682604051610da99061376f565b60006040518083038185875af1925050503d8060008114610de6576040519150601f19603f3d011682016040523d82523d6000602084013e610deb565b606091505b5050905080610e2f576040517f08c379a0000000000000000000000000000000000000000000000000000000008152600401610e26906137d0565b60405180910390fd5b5050565b610e4e83838360405180602001604052806000815250611422565b505050565b6000610e5d610a6d565b8210610e9e576040517f08c379a0000000000000000000000000000000000000000000000000000000008152600401610e9590613862565b60405180910390fd5b60088281548110610eb257610eb1613882565b5b90600052602060002001549050919050565b610ecc611935565b73ffffffffffffffffffffffffffffffffffffffff16610eea61132a565b73ffffffffffffffffffffffffffffffffffffffff1614610f40576040517f08c379a0000000000000000000000000000000000000000000000000000000008152600401610f37906136b2565b60405180910390fd5b80600e9080519060200190610f569291906128f5565b5050565b60006001600d6000828254610f6f91906138b1565b92505081905550600d54604051602001610f899190613928565b6040516020818303038152906040528051906020012060001c905090565b6000806002600084815260200190815260200160002060009054906101000a900473ffffffffffffffffffffffffffffffffffffffff169050600073ffffffffffffffffffffffffffffffffffffffff168173ffffffffffffffffffffffffffffffffffffffff160361104f576040517f08c379a0000000000000000000000000000000000000000000000000000000008152600401611046906139b5565b60405180910390fd5b80915050919050565b60008073ffffffffffffffffffffffffffffffffffffffff168273ffffffffffffffffffffffffffffffffffffffff16036110c8576040517f08c379a00000000000000000000000000000000000000000000000000000000081526004016110bf90613a47565b60405180910390fd5b600360008373ffffffffffffffffffffffffffffffffffffffff1673ffffffffffffffffffffffffffffffffffffffff168152602001908152602001600020549050919050565b611117611935565b73ffffffffffffffffffffffffffffffffffffffff1661113561132a565b73ffffffffffffffffffffffffffffffffffffffff161461118b576040517f08c379a0000000000000000000000000000000000000000000000000000000008152600401611182906136b2565b60405180910390fd5b6111956000611dc9565b565b6000806111a4600b611d3a565b9050600c60009054906101000a900473ffffffffffffffffffffffffffffffffffffffff1673ffffffffffffffffffffffffffffffffffffffff163373ffffffffffffffffffffffffffffffffffffffff161461120057600080fd5b6001600a61120e9190613a67565b811115611250576040517f08c379a0000000000000000000000000000000000000000000000000000000008152600401611247906134ab565b60405180910390fd5b601081901b90506112613382611e8f565b61126b600b611ead565b8091505090565b6060600061127f83611058565b905060008167ffffffffffffffff81111561129d5761129c612cd4565b5b6040519080825280602002602001820160405280156112cb5781602001602082028036833780820191505090505b50905060005b82811015611315576112e38582610ada565b8282815181106112f6576112f5613882565b5b602002602001018181525050808061130d9061361e565b9150506112d1565b508092505050919050565b6509184e72a00081565b6000600a60009054906101000a900473ffffffffffffffffffffffffffffffffffffffff16905090565b60606001805461136390613154565b80601f016020809104026020016040519081016040528092919081815260200182805461138f90613154565b80156113dc5780601f106113b1576101008083540402835291602001916113dc565b820191906000526020600020905b8154815290600101906020018083116113bf57829003601f168201915b5050505050905090565b6113f86113f1611935565b8383611ec3565b5050565b600c60009054906101000a900473ffffffffffffffffffffffffffffffffffffffff1681565b61143361142d611935565b836119f6565b611472576040517f08c379a0000000000000000000000000000000000000000000000000000000008152600401611469906133ad565b60405180910390fd5b61147e8484848461202f565b50505050565b61148c611935565b73ffffffffffffffffffffffffffffffffffffffff166114aa61132a565b73ffffffffffffffffffffffffffffffffffffffff1614611500576040517f08c379a00000000000000000000000000000000000000000000000000000000081526004016114f7906136b2565b60405180910390fd5b600061150c600b611d3a565b9050600a6115238383611d4890919063ffffffff16565b10611563576040517f08c379a000000000000000000000000000000000000000000000000000000000815260040161155a90613ae7565b60405180910390fd5b60005b8281101561158a57611576611d74565b5080806115829061361e565b915050611566565b505050565b60606040518060400160405280600781526020017f746f6b656e4964000000000000000000000000000000000000000000000000008152509050919050565b600e80546115db90613154565b80601f016020809104026020016040519081016040528092919081815260200182805461160790613154565b80156116545780601f1061162957610100808354040283529160200191611654565b820191906000526020600020905b81548152906001019060200180831161163757829003601f168201915b505050505081565b6000600560008473ffffffffffffffffffffffffffffffffffffffff1673ffffffffffffffffffffffffffffffffffffffff16815260200190815260200160002060008373ffffffffffffffffffffffffffffffffffffffff1673ffffffffffffffffffffffffffffffffffffffff16815260200190815260200160002060009054906101000a900460ff16905092915050565b6116f8611935565b73ffffffffffffffffffffffffffffffffffffffff1661171661132a565b73ffffffffffffffffffffffffffffffffffffffff161461176c576040517f08c379a0000000000000000000000000000000000000000000000000000000008152600401611763906136b2565b60405180910390fd5b600073ffffffffffffffffffffffffffffffffffffffff168173ffffffffffffffffffffffffffffffffffffffff16036117db576040517f08c379a00000000000000000000000000000000000000000000000000000000081526004016117d290613b79565b60405180910390fd5b6117e481611dc9565b50565b60007f80ac58cd000000000000000000000000000000000000000000000000000000007bffffffffffffffffffffffffffffffffffffffffffffffffffffffff1916827bffffffffffffffffffffffffffffffffffffffffffffffffffffffff191614806118b257507f5b5e139f000000000000000000000000000000000000000000000000000000007bffffffffffffffffffffffffffffffffffffffffffffffffffffffff1916827bffffffffffffffffffffffffffffffffffffffffffffffffffffffff1916145b806118c257506118c18261208b565b5b9050919050565b60008073ffffffffffffffffffffffffffffffffffffffff166002600084815260200190815260200160002060009054906101000a900473ffffffffffffffffffffffffffffffffffffffff1673ffffffffffffffffffffffffffffffffffffffff1614159050919050565b600033905090565b816004600083815260200190815260200160002060006101000a81548173ffffffffffffffffffffffffffffffffffffffff021916908373ffffffffffffffffffffffffffffffffffffffff160217905550808273ffffffffffffffffffffffffffffffffffffffff166119b083610fa7565b73ffffffffffffffffffffffffffffffffffffffff167f8c5be1e5ebec7d5bd14f71427d1e84f3dd0314c0f7b2291e5b200ac8c7c3b92560405160405180910390a45050565b6000611a01826118c9565b611a40576040517f08c379a0000000000000000000000000000000000000000000000000000000008152600401611a3790613c0b565b60405180910390fd5b6000611a4b83610fa7565b90508073ffffffffffffffffffffffffffffffffffffffff168473ffffffffffffffffffffffffffffffffffffffff161480611a8d5750611a8c818561165c565b5b80611acb57508373ffffffffffffffffffffffffffffffffffffffff16611ab3846108a2565b73ffffffffffffffffffffffffffffffffffffffff16145b91505092915050565b8273ffffffffffffffffffffffffffffffffffffffff16611af482610fa7565b73ffffffffffffffffffffffffffffffffffffffff1614611b4a576040517f08c379a0000000000000000000000000000000000000000000000000000000008152600401611b4190613c9d565b60405180910390fd5b600073ffffffffffffffffffffffffffffffffffffffff168273ffffffffffffffffffffffffffffffffffffffff1603611bb9576040517f08c379a0000000000000000000000000000000000000000000000000000000008152600401611bb090613d2f565b60405180910390fd5b611bc48383836120f5565b611bcf60008261193d565b6001600360008573ffffffffffffffffffffffffffffffffffffffff1673ffffffffffffffffffffffffffffffffffffffff1681526020019081526020016000206000828254611c1f9190613a67565b925050819055506001600360008473ffffffffffffffffffffffffffffffffffffffff1673ffffffffffffffffffffffffffffffffffffffff1681526020019081526020016000206000828254611c7691906138b1565b92505081905550816002600083815260200190815260200160002060006101000a81548173ffffffffffffffffffffffffffffffffffffffff021916908373ffffffffffffffffffffffffffffffffffffffff160217905550808273ffffffffffffffffffffffffffffffffffffffff168473ffffffffffffffffffffffffffffffffffffffff167fddf252ad1be2c89b69c2b068fc378daa952ba7f163c4a11628f55a4df523b3ef60405160405180910390a4611d35838383612207565b505050565b600081600001549050919050565b60008183611d5691906138b1565b905092915050565b60008183611d6c9190613d4f565b905092915050565b600080611d81600b611d3a565b9050601081901b90506000611d94610f5a565b9050600381611da39190613dd8565b82611dae91906138b1565b9150611dba3383611e8f565b611dc4600b611ead565b505090565b6000600a60009054906101000a900473ffffffffffffffffffffffffffffffffffffffff16905081600a60006101000a81548173ffffffffffffffffffffffffffffffffffffffff021916908373ffffffffffffffffffffffffffffffffffffffff1602179055508173ffffffffffffffffffffffffffffffffffffffff168173ffffffffffffffffffffffffffffffffffffffff167f8be0079c531659141344cd1fd0a4f28419497f9722a3daafe3b4186f6b6457e060405160405180910390a35050565b611ea982826040518060200160405280600081525061220c565b5050565b6001816000016000828254019250508190555050565b8173ffffffffffffffffffffffffffffffffffffffff168373ffffffffffffffffffffffffffffffffffffffff1603611f31576040517f08c379a0000000000000000000000000000000000000000000000000000000008152600401611f2890613e55565b60405180910390fd5b80600560008573ffffffffffffffffffffffffffffffffffffffff1673ffffffffffffffffffffffffffffffffffffffff16815260200190815260200160002060008473ffffffffffffffffffffffffffffffffffffffff1673ffffffffffffffffffffffffffffffffffffffff16815260200190815260200160002060006101000a81548160ff0219169083151502179055508173ffffffffffffffffffffffffffffffffffffffff168373ffffffffffffffffffffffffffffffffffffffff167f17307eab39ab6107e8899845ad3d59bd9653f200f220920489ca2b5937696c31836040516120229190612a4c565b60405180910390a3505050565b61203a848484611ad4565b61204684848484612267565b612085576040517f08c379a000000000000000000000000000000000000000000000000000000000815260040161207c90613ee7565b60405180910390fd5b50505050565b60007f01ffc9a7000000000000000000000000000000000000000000000000000000007bffffffffffffffffffffffffffffffffffffffffffffffffffffffff1916827bffffffffffffffffffffffffffffffffffffffffffffffffffffffff1916149050919050565b6121008383836123ee565b600073ffffffffffffffffffffffffffffffffffffffff168373ffffffffffffffffffffffffffffffffffffffff16036121425761213d816123f3565b612181565b8173ffffffffffffffffffffffffffffffffffffffff168373ffffffffffffffffffffffffffffffffffffffff16146121805761217f838261243c565b5b5b600073ffffffffffffffffffffffffffffffffffffffff168273ffffffffffffffffffffffffffffffffffffffff16036121c3576121be816125a9565b612202565b8273ffffffffffffffffffffffffffffffffffffffff168273ffffffffffffffffffffffffffffffffffffffff161461220157612200828261267a565b5b5b505050565b505050565b61221683836126f9565b6122236000848484612267565b612262576040517f08c379a000000000000000000000000000000000000000000000000000000000815260040161225990613ee7565b60405180910390fd5b505050565b60006122888473ffffffffffffffffffffffffffffffffffffffff166128d2565b156123e1578373ffffffffffffffffffffffffffffffffffffffff1663150b7a026122b1611935565b8786866040518563ffffffff1660e01b81526004016122d39493929190613f5c565b6020604051808303816000875af192505050801561230f57506040513d601f19601f8201168201806040525081019061230c9190613fbd565b60015b612391573d806000811461233f576040519150601f19603f3d011682016040523d82523d6000602084013e612344565b606091505b506000815103612389576040517f08c379a000000000000000000000000000000000000000000000000000000000815260040161238090613ee7565b60405180910390fd5b805181602001fd5b63150b7a0260e01b7bffffffffffffffffffffffffffffffffffffffffffffffffffffffff1916817bffffffffffffffffffffffffffffffffffffffffffffffffffffffff1916149150506123e6565b600190505b949350505050565b505050565b6008805490506009600083815260200190815260200160002081905550600881908060018154018082558091505060019003906000526020600020016000909190919091505550565b6000600161244984611058565b6124539190613a67565b9050600060076000848152602001908152602001600020549050818114612538576000600660008673ffffffffffffffffffffffffffffffffffffffff1673ffffffffffffffffffffffffffffffffffffffff168152602001908152602001600020600084815260200190815260200160002054905080600660008773ffffffffffffffffffffffffffffffffffffffff1673ffffffffffffffffffffffffffffffffffffffff168152602001908152602001600020600084815260200190815260200160002081905550816007600083815260200190815260200160002081905550505b6007600084815260200190815260200160002060009055600660008573ffffffffffffffffffffffffffffffffffffffff1673ffffffffffffffffffffffffffffffffffffffff16815260200190815260200160002060008381526020019081526020016000206000905550505050565b600060016008805490506125bd9190613a67565b90506000600960008481526020019081526020016000205490506000600883815481106125ed576125ec613882565b5b90600052602060002001549050806008838154811061260f5761260e613882565b5b90600052602060002001819055508160096000838152602001908152602001600020819055506009600085815260200190815260200160002060009055600880548061265e5761265d613fea565b5b6001900381819060005260206000200160009055905550505050565b600061268583611058565b905081600660008573ffffffffffffffffffffffffffffffffffffffff1673ffffffffffffffffffffffffffffffffffffffff168152602001908152602001600020600083815260200190815260200160002081905550806007600084815260200190815260200160002081905550505050565b600073ffffffffffffffffffffffffffffffffffffffff168273ffffffffffffffffffffffffffffffffffffffff1603612768576040517f08c379a000000000000000000000000000000000000000000000000000000000815260040161275f90614065565b60405180910390fd5b612771816118c9565b156127b1576040517f08c379a00000000000000000000000000000000000000000000000000000000081526004016127a8906140d1565b60405180910390fd5b6127bd600083836120f5565b6001600360008473ffffffffffffffffffffffffffffffffffffffff1673ffffffffffffffffffffffffffffffffffffffff168152602001908152602001600020600082825461280d91906138b1565b92505081905550816002600083815260200190815260200160002060006101000a81548173ffffffffffffffffffffffffffffffffffffffff021916908373ffffffffffffffffffffffffffffffffffffffff160217905550808273ffffffffffffffffffffffffffffffffffffffff16600073ffffffffffffffffffffffffffffffffffffffff167fddf252ad1be2c89b69c2b068fc378daa952ba7f163c4a11628f55a4df523b3ef60405160405180910390a46128ce60008383612207565b5050565b6000808273ffffffffffffffffffffffffffffffffffffffff163b119050919050565b82805461290190613154565b90600052602060002090601f016020900481019282612923576000855561296a565b82601f1061293c57805160ff191683800117855561296a565b8280016001018555821561296a579182015b8281111561296957825182559160200191906001019061294e565b5b509050612977919061297b565b5090565b5b8082111561299457600081600090555060010161297c565b5090565b6000604051905090565b600080fd5b600080fd5b60007fffffffff0000000000000000000000000000000000000000000000000000000082169050919050565b6129e1816129ac565b81146129ec57600080fd5b50565b6000813590506129fe816129d8565b92915050565b600060208284031215612a1a57612a196129a2565b5b6000612a28848285016129ef565b91505092915050565b60008115159050919050565b612a4681612a31565b82525050565b6000602082019050612a616000830184612a3d565b92915050565b600081519050919050565b600082825260208201905092915050565b60005b83811015612aa1578082015181840152602081019050612a86565b83811115612ab0576000848401525b50505050565b6000601f19601f8301169050919050565b6000612ad282612a67565b612adc8185612a72565b9350612aec818560208601612a83565b612af581612ab6565b840191505092915050565b60006020820190508181036000830152612b1a8184612ac7565b905092915050565b6000819050919050565b612b3581612b22565b8114612b4057600080fd5b50565b600081359050612b5281612b2c565b92915050565b600060208284031215612b6e57612b6d6129a2565b5b6000612b7c84828501612b43565b91505092915050565b600073ffffffffffffffffffffffffffffffffffffffff82169050919050565b6000612bb082612b85565b9050919050565b612bc081612ba5565b82525050565b6000602082019050612bdb6000830184612bb7565b92915050565b612bea81612ba5565b8114612bf557600080fd5b50565b600081359050612c0781612be1565b92915050565b60008060408385031215612c2457612c236129a2565b5b6000612c3285828601612bf8565b9250506020612c4385828601612b43565b9150509250929050565b612c5681612b22565b82525050565b6000602082019050612c716000830184612c4d565b92915050565b600080600060608486031215612c9057612c8f6129a2565b5b6000612c9e86828701612bf8565b9350506020612caf86828701612bf8565b9250506040612cc086828701612b43565b9150509250925092565b600080fd5b600080fd5b7f4e487b7100000000000000000000000000000000000000000000000000000000600052604160045260246000fd5b612d0c82612ab6565b810181811067ffffffffffffffff82111715612d2b57612d2a612cd4565b5b80604052505050565b6000612d3e612998565b9050612d4a8282612d03565b919050565b600067ffffffffffffffff821115612d6a57612d69612cd4565b5b612d7382612ab6565b9050602081019050919050565b82818337600083830152505050565b6000612da2612d9d84612d4f565b612d34565b905082815260208101848484011115612dbe57612dbd612ccf565b5b612dc9848285612d80565b509392505050565b600082601f830112612de657612de5612cca565b5b8135612df6848260208601612d8f565b91505092915050565b600060208284031215612e1557612e146129a2565b5b600082013567ffffffffffffffff811115612e3357612e326129a7565b5b612e3f84828501612dd1565b91505092915050565b600060208284031215612e5e57612e5d6129a2565b5b6000612e6c84828501612bf8565b91505092915050565b600081519050919050565b600082825260208201905092915050565b6000819050602082019050919050565b612eaa81612b22565b82525050565b6000612ebc8383612ea1565b60208301905092915050565b6000602082019050919050565b6000612ee082612e75565b612eea8185612e80565b9350612ef583612e91565b8060005b83811015612f26578151612f0d8882612eb0565b9750612f1883612ec8565b925050600181019050612ef9565b5085935050505092915050565b60006020820190508181036000830152612f4d8184612ed5565b905092915050565b612f5e81612a31565b8114612f6957600080fd5b50565b600081359050612f7b81612f55565b92915050565b60008060408385031215612f9857612f976129a2565b5b6000612fa685828601612bf8565b9250506020612fb785828601612f6c565b9150509250929050565b600067ffffffffffffffff821115612fdc57612fdb612cd4565b5b612fe582612ab6565b9050602081019050919050565b600061300561300084612fc1565b612d34565b90508281526020810184848401111561302157613020612ccf565b5b61302c848285612d80565b509392505050565b600082601f83011261304957613048612cca565b5b8135613059848260208601612ff2565b91505092915050565b6000806000806080858703121561307c5761307b6129a2565b5b600061308a87828801612bf8565b945050602061309b87828801612bf8565b93505060406130ac87828801612b43565b925050606085013567ffffffffffffffff8111156130cd576130cc6129a7565b5b6130d987828801613034565b91505092959194509250565b600080604083850312156130fc576130fb6129a2565b5b600061310a85828601612bf8565b925050602061311b85828601612bf8565b9150509250929050565b7f4e487b7100000000000000000000000000000000000000000000000000000000600052602260045260246000fd5b6000600282049050600182168061316c57607f821691505b60208210810361317f5761317e613125565b5b50919050565b7f4552433732313a20617070726f76656420717565727920666f72206e6f6e657860008201527f697374656e7420746f6b656e0000000000000000000000000000000000000000602082015250565b60006131e1602c83612a72565b91506131ec82613185565b604082019050919050565b60006020820190508181036000830152613210816131d4565b9050919050565b7f4552433732313a20617070726f76616c20746f2063757272656e74206f776e6560008201527f7200000000000000000000000000000000000000000000000000000000000000602082015250565b6000613273602183612a72565b915061327e82613217565b604082019050919050565b600060208201905081810360008301526132a281613266565b9050919050565b7f4552433732313a20617070726f76652063616c6c6572206973206e6f74206f7760008201527f6e6572206e6f7220617070726f76656420666f7220616c6c0000000000000000602082015250565b6000613305603883612a72565b9150613310826132a9565b604082019050919050565b60006020820190508181036000830152613334816132f8565b9050919050565b7f4552433732313a207472616e736665722063616c6c6572206973206e6f74206f60008201527f776e6572206e6f7220617070726f766564000000000000000000000000000000602082015250565b6000613397603183612a72565b91506133a28261333b565b604082019050919050565b600060208201905081810360008301526133c68161338a565b9050919050565b7f455243373231456e756d657261626c653a206f776e657220696e646578206f7560008201527f74206f6620626f756e6473000000000000000000000000000000000000000000602082015250565b6000613429602b83612a72565b9150613434826133cd565b604082019050919050565b600060208201905081810360008301526134588161341c565b9050919050565b7f5468697320636f6c6c656374696f6e20697320736f6c64206f75742100000000600082015250565b6000613495601c83612a72565b91506134a08261345f565b602082019050919050565b600060208201905081810360008301526134c481613488565b9050919050565b7f596f75206861766520726563656976656420746865206d6178696d756d20616d60008201527f6f756e74206f66204e46547320616c6c6f7765642e0000000000000000000000602082015250565b6000613527603583612a72565b9150613532826134cb565b604082019050919050565b600060208201905081810360008301526135568161351a565b9050919050565b7f4e6f7420656e6f75676820657468657220746f207075726368617365204e465460008201527f732e000000000000000000000000000000000000000000000000000000000000602082015250565b60006135b9602283612a72565b91506135c48261355d565b604082019050919050565b600060208201905081810360008301526135e8816135ac565b9050919050565b7f4e487b7100000000000000000000000000000000000000000000000000000000600052601160045260246000fd5b600061362982612b22565b91507fffffffffffffffffffffffffffffffffffffffffffffffffffffffffffffffff820361365b5761365a6135ef565b5b600182019050919050565b7f4f776e61626c653a2063616c6c6572206973206e6f7420746865206f776e6572600082015250565b600061369c602083612a72565b91506136a782613666565b602082019050919050565b600060208201905081810360008301526136cb8161368f565b9050919050565b7f4e6f206574686572206c65667420746f20776974686472617700000000000000600082015250565b6000613708601983612a72565b9150613713826136d2565b602082019050919050565b60006020820190508181036000830152613737816136fb565b9050919050565b600081905092915050565b50565b600061375960008361373e565b915061376482613749565b600082019050919050565b600061377a8261374c565b9150819050919050565b7f5472616e73666572206661696c65642e00000000000000000000000000000000600082015250565b60006137ba601083612a72565b91506137c582613784565b602082019050919050565b600060208201905081810360008301526137e9816137ad565b9050919050565b7f455243373231456e756d657261626c653a20676c6f62616c20696e646578206f60008201527f7574206f6620626f756e64730000000000000000000000000000000000000000602082015250565b600061384c602c83612a72565b9150613857826137f0565b604082019050919050565b6000602082019050818103600083015261387b8161383f565b9050919050565b7f4e487b7100000000000000000000000000000000000000000000000000000000600052603260045260246000fd5b60006138bc82612b22565b91506138c783612b22565b9250827fffffffffffffffffffffffffffffffffffffffffffffffffffffffffffffffff038211156138fc576138fb6135ef565b5b828201905092915050565b6000819050919050565b61392261391d82612b22565b613907565b82525050565b60006139348284613911565b60208201915081905092915050565b7f4552433732313a206f776e657220717565727920666f72206e6f6e657869737460008201527f656e7420746f6b656e0000000000000000000000000000000000000000000000602082015250565b600061399f602983612a72565b91506139aa82613943565b604082019050919050565b600060208201905081810360008301526139ce81613992565b9050919050565b7f4552433732313a2062616c616e636520717565727920666f7220746865207a6560008201527f726f206164647265737300000000000000000000000000000000000000000000602082015250565b6000613a31602a83612a72565b9150613a3c826139d5565b604082019050919050565b60006020820190508181036000830152613a6081613a24565b9050919050565b6000613a7282612b22565b9150613a7d83612b22565b925082821015613a9057613a8f6135ef565b5b828203905092915050565b7f4e6f7420656e6f756768204e465473206c65667420746f207265736572766500600082015250565b6000613ad1601f83612a72565b9150613adc82613a9b565b602082019050919050565b60006020820190508181036000830152613b0081613ac4565b9050919050565b7f4f776e61626c653a206e6577206f776e657220697320746865207a65726f206160008201527f6464726573730000000000000000000000000000000000000000000000000000602082015250565b6000613b63602683612a72565b9150613b6e82613b07565b604082019050919050565b60006020820190508181036000830152613b9281613b56565b9050919050565b7f4552433732313a206f70657261746f7220717565727920666f72206e6f6e657860008201527f697374656e7420746f6b656e0000000000000000000000000000000000000000602082015250565b6000613bf5602c83612a72565b9150613c0082613b99565b604082019050919050565b60006020820190508181036000830152613c2481613be8565b9050919050565b7f4552433732313a207472616e736665722066726f6d20696e636f72726563742060008201527f6f776e6572000000000000000000000000000000000000000000000000000000602082015250565b6000613c87602583612a72565b9150613c9282613c2b565b604082019050919050565b60006020820190508181036000830152613cb681613c7a565b9050919050565b7f4552433732313a207472616e7366657220746f20746865207a65726f2061646460008201527f7265737300000000000000000000000000000000000000000000000000000000602082015250565b6000613d19602483612a72565b9150613d2482613cbd565b604082019050919050565b60006020820190508181036000830152613d4881613d0c565b9050919050565b6000613d5a82612b22565b9150613d6583612b22565b9250817fffffffffffffffffffffffffffffffffffffffffffffffffffffffffffffffff0483118215151615613d9e57613d9d6135ef565b5b828202905092915050565b7f4e487b7100000000000000000000000000000000000000000000000000000000600052601260045260246000fd5b6000613de382612b22565b9150613dee83612b22565b925082613dfe57613dfd613da9565b5b828206905092915050565b7f4552433732313a20617070726f766520746f2063616c6c657200000000000000600082015250565b6000613e3f601983612a72565b9150613e4a82613e09565b602082019050919050565b60006020820190508181036000830152613e6e81613e32565b9050919050565b7f4552433732313a207472616e7366657220746f206e6f6e20455243373231526560008201527f63656976657220696d706c656d656e7465720000000000000000000000000000602082015250565b6000613ed1603283612a72565b9150613edc82613e75565b604082019050919050565b60006020820190508181036000830152613f0081613ec4565b9050919050565b600081519050919050565b600082825260208201905092915050565b6000613f2e82613f07565b613f388185613f12565b9350613f48818560208601612a83565b613f5181612ab6565b840191505092915050565b6000608082019050613f716000830187612bb7565b613f7e6020830186612bb7565b613f8b6040830185612c4d565b8181036060830152613f9d8184613f23565b905095945050505050565b600081519050613fb7816129d8565b92915050565b600060208284031215613fd357613fd26129a2565b5b6000613fe184828501613fa8565b91505092915050565b7f4e487b7100000000000000000000000000000000000000000000000000000000600052603160045260246000fd5b7f4552433732313a206d696e7420746f20746865207a65726f2061646472657373600082015250565b600061404f602083612a72565b915061405a82614019565b602082019050919050565b6000602082019050818103600083015261407e81614042565b9050919050565b7f4552433732313a20746f6b656e20616c7265616479206d696e74656400000000600082015250565b60006140bb601c83612a72565b91506140c682614085565b602082019050919050565b600060208201905081810360008301526140ea816140ae565b905091905056fea26469706673582212209beaf382a8a87fa442e491c0b9bb7109c7c68a668af9b5eb473a2bc794c6c64064736f6c634300080d0033",
  "immutableReferences": {},
  "source": "//SPDX-License-Identifier: MIT\npragma solidity ^0.8.13;\n\nimport \"@openzeppelin/contracts/utils/Counters.sol\";\nimport \"@openzeppelin/contracts/access/Ownable.sol\";\nimport \"@openzeppelin/contracts/utils/math/SafeMath.sol\";\nimport \"@openzeppelin/contracts/token/ERC721/extensions/ERC721Enumerable.sol\";\nimport \"@openzeppelin/contracts/token/ERC721/extensions/IERC721Metadata.sol\";\n\ncontract NFTCollection is ERC721Enumerable, Ownable {\n    using SafeMath for uint256;\n    using Counters for Counters.Counter;\n\n    Counters.Counter private _tokenIds;\n    // The max number of NFTs in the collection\n    uint public constant MAX_SUPPLY = 10;\n    // The mint price for the collection\n    uint public constant PRICE = 0.00001 ether;\n    // The max number of mints per wallet\n    uint public constant MAX_PER_MINT = 5;\n    \n    address public tokenOwner;         // the owner of the token\n\n    uint nonce = 0;\n\n    string public baseTokenURI;\n\n    constructor(string memory baseURI, string memory name, string memory symbol) ERC721(name, symbol) {\n        setBaseURI(baseURI);\n        tokenOwner = msg.sender;       // address of the token owner\n    }\n\n    function getOwnerAddress() public view returns (address) {\n        return tokenOwner;\n    }\n\n    function _baseURI() internal view virtual override returns (string memory) {\n        return baseTokenURI;\n    }\n\n    function setBaseURI(string memory _baseTokenURI) public onlyOwner {\n        baseTokenURI = _baseTokenURI;\n    }\n\n    function random() public returns(uint) {\n        nonce += 1;\n        return uint(keccak256(abi.encodePacked(nonce)));\n    }\n\n    function buyEgg() external returns (uint) {\n        uint newTokenID = _tokenIds.current();\n        require(msg.sender == tokenOwner);\n        require(newTokenID <= MAX_SUPPLY - 1, \"This collection is sold out!\");\n\n        newTokenID <<= 16;\n\n        _safeMint(msg.sender, newTokenID);\n        _tokenIds.increment();\n        return newTokenID;\n    }\n\n    function mintNFTs(uint _count) public payable {\n        uint totalMinted = _tokenIds.current();\n\n        require(totalMinted.add(_count) <= MAX_SUPPLY, \"This collection is sold out!\");\n        require(_count >0 && _count <= MAX_PER_MINT, \"You have received the maximum amount of NFTs allowed.\");\n        require(msg.value >= PRICE.mul(_count), \"Not enough ether to purchase NFTs.\");\n\n        for (uint i = 0; i < _count; i++) {\n            _mintSingleNFT();\n        }\n    }\n\n    function _mintSingleNFT() private returns (uint) {\n        uint newTokenID = _tokenIds.current();\n        newTokenID <<= 16;\n        uint randomId = random();\n        newTokenID += randomId % 3;\n        _safeMint(msg.sender, newTokenID);\n        _tokenIds.increment();\n    }\n\n    function tokenURI(uint256 tokenId) public view override returns (string memory) {\n        return \"tokenId\";\n    }\n    \n    // Returns the ids of the NFTs owned by the wallet address\n    function tokensOfOwner(address _owner) external view returns (uint[] memory) {\n        uint tokenCount = balanceOf(_owner);\n        uint[] memory tokensId = new uint256[](tokenCount);\n\n        for (uint i = 0; i < tokenCount; i++) {\n            tokensId[i] = tokenOfOwnerByIndex(_owner, i);\n        }\n        return tokensId;\n    }\n    \n    // Withdraw the ether in the contract\n    function withdraw() public payable onlyOwner {\n        uint balance = address(this).balance;\n        require(balance > 0, \"No ether left to withdraw\");\n\n        (bool success, ) = (msg.sender).call{value: balance}(\"\");\n        require(success, \"Transfer failed.\");\n    }\n\n    // Reserve NFTs only for owner to mint for free\n    function reserveNFTs(uint _count) public onlyOwner {\n        uint totalMinted = _tokenIds.current();\n\n        require(totalMinted.add(_count) < MAX_SUPPLY, \"Not enough NFTs left to reserve\");\n\n        for (uint i = 0; i < _count; i++) {\n            _mintSingleNFT();\n        }\n    }\n}\n\n",
  "sourcePath": "/Users/sugina/Documents/Videos/2022:12:31Cryptozoo/nft-box/contracts/NFTCollection.sol",
  "compiler": {
    "name": "solc",
    "version": "0.8.13+commit.abaa5c0e.Emscripten.clang"
  },
  "schemaVersion": "3.4.11",
  "updatedAt": "2023-01-01T06:49:55.736Z",
  "devdoc": {
    "kind": "dev",
    "methods": {
      "approve(address,uint256)": {
        "details": "See {IERC721-approve}."
      },
      "balanceOf(address)": {
        "details": "See {IERC721-balanceOf}."
      },
      "getApproved(uint256)": {
        "details": "See {IERC721-getApproved}."
      },
      "isApprovedForAll(address,address)": {
        "details": "See {IERC721-isApprovedForAll}."
      },
      "name()": {
        "details": "See {IERC721Metadata-name}."
      },
      "owner()": {
        "details": "Returns the address of the current owner."
      },
      "ownerOf(uint256)": {
        "details": "See {IERC721-ownerOf}."
      },
      "renounceOwnership()": {
        "details": "Leaves the contract without owner. It will not be possible to call `onlyOwner` functions anymore. Can only be called by the current owner. NOTE: Renouncing ownership will leave the contract without an owner, thereby removing any functionality that is only available to the owner."
      },
      "safeTransferFrom(address,address,uint256)": {
        "details": "See {IERC721-safeTransferFrom}."
      },
      "safeTransferFrom(address,address,uint256,bytes)": {
        "details": "See {IERC721-safeTransferFrom}."
      },
      "setApprovalForAll(address,bool)": {
        "details": "See {IERC721-setApprovalForAll}."
      },
      "supportsInterface(bytes4)": {
        "details": "See {IERC165-supportsInterface}."
      },
      "symbol()": {
        "details": "See {IERC721Metadata-symbol}."
      },
      "tokenByIndex(uint256)": {
        "details": "See {IERC721Enumerable-tokenByIndex}."
      },
      "tokenOfOwnerByIndex(address,uint256)": {
        "details": "See {IERC721Enumerable-tokenOfOwnerByIndex}."
      },
      "tokenURI(uint256)": {
        "details": "See {IERC721Metadata-tokenURI}."
      },
      "totalSupply()": {
        "details": "See {IERC721Enumerable-totalSupply}."
      },
      "transferFrom(address,address,uint256)": {
        "details": "See {IERC721-transferFrom}."
      },
      "transferOwnership(address)": {
        "details": "Transfers ownership of the contract to a new account (`newOwner`). Can only be called by the current owner."
      }
    },
    "version": 1
  },
  "userdoc": {
    "kind": "user",
    "methods": {},
    "version": 1
  }
}