{
  "contractName": "NFTCollection",
  "abi": [
    {
      "inputs": [
        {
          "internalType": "string",
          "name": "baseURI",
          "type": "string"
        },
        {
          "internalType": "string",
          "name": "name",
          "type": "string"
        },
        {
          "internalType": "string",
          "name": "symbol",
          "type": "string"
        }
      ],
      "stateMutability": "nonpayable",
      "type": "constructor"
    },
    {
      "anonymous": false,
      "inputs": [
        {
          "indexed": true,
          "internalType": "address",
          "name": "owner",
          "type": "address"
        },
        {
          "indexed": true,
          "internalType": "address",
          "name": "approved",
          "type": "address"
        },
        {
          "indexed": true,
          "internalType": "uint256",
          "name": "tokenId",
          "type": "uint256"
        }
      ],
      "name": "Approval",
      "type": "event"
    },
    {
      "anonymous": false,
      "inputs": [
        {
          "indexed": true,
          "internalType": "address",
          "name": "owner",
          "type": "address"
        },
        {
          "indexed": true,
          "internalType": "address",
          "name": "operator",
          "type": "address"
        },
        {
          "indexed": false,
          "internalType": "bool",
          "name": "approved",
          "type": "bool"
        }
      ],
      "name": "ApprovalForAll",
      "type": "event"
    },
    {
      "anonymous": false,
      "inputs": [
        {
          "indexed": true,
          "internalType": "address",
          "name": "previousOwner",
          "type": "address"
        },
        {
          "indexed": true,
          "internalType": "address",
          "name": "newOwner",
          "type": "address"
        }
      ],
      "name": "OwnershipTransferred",
      "type": "event"
    },
    {
      "anonymous": false,
      "inputs": [
        {
          "indexed": true,
          "internalType": "address",
          "name": "from",
          "type": "address"
        },
        {
          "indexed": true,
          "internalType": "address",
          "name": "to",
          "type": "address"
        },
        {
          "indexed": true,
          "internalType": "uint256",
          "name": "tokenId",
          "type": "uint256"
        }
      ],
      "name": "Transfer",
      "type": "event"
    },
    {
      "inputs": [],
      "name": "MAX_PER_MINT",
      "outputs": [
        {
          "internalType": "uint256",
          "name": "",
          "type": "uint256"
        }
      ],
      "stateMutability": "view",
      "type": "function",
      "constant": true
    },
    {
      "inputs": [],
      "name": "MAX_SUPPLY",
      "outputs": [
        {
          "internalType": "uint256",
          "name": "",
          "type": "uint256"
        }
      ],
      "stateMutability": "view",
      "type": "function",
      "constant": true
    },
    {
      "inputs": [],
      "name": "PRICE",
      "outputs": [
        {
          "internalType": "uint256",
          "name": "",
          "type": "uint256"
        }
      ],
      "stateMutability": "view",
      "type": "function",
      "constant": true
    },
    {
      "inputs": [
        {
          "internalType": "address",
          "name": "to",
          "type": "address"
        },
        {
          "internalType": "uint256",
          "name": "tokenId",
          "type": "uint256"
        }
      ],
      "name": "approve",
      "outputs": [],
      "stateMutability": "nonpayable",
      "type": "function"
    },
    {
      "inputs": [
        {
          "internalType": "address",
          "name": "owner",
          "type": "address"
        }
      ],
      "name": "balanceOf",
      "outputs": [
        {
          "internalType": "uint256",
          "name": "",
          "type": "uint256"
        }
      ],
      "stateMutability": "view",
      "type": "function",
      "constant": true
    },
    {
      "inputs": [],
      "name": "baseTokenURI",
      "outputs": [
        {
          "internalType": "string",
          "name": "",
          "type": "string"
        }
      ],
      "stateMutability": "view",
      "type": "function",
      "constant": true
    },
    {
      "inputs": [],
      "name": "coinAddress",
      "outputs": [
        {
          "internalType": "address",
          "name": "",
          "type": "address"
        }
      ],
      "stateMutability": "view",
      "type": "function",
      "constant": true
    },
    {
      "inputs": [
        {
          "internalType": "uint256",
          "name": "tokenId",
          "type": "uint256"
        }
      ],
      "name": "getApproved",
      "outputs": [
        {
          "internalType": "address",
          "name": "",
          "type": "address"
        }
      ],
      "stateMutability": "view",
      "type": "function",
      "constant": true
    },
    {
      "inputs": [
        {
          "internalType": "address",
          "name": "owner",
          "type": "address"
        },
        {
          "internalType": "address",
          "name": "operator",
          "type": "address"
        }
      ],
      "name": "isApprovedForAll",
      "outputs": [
        {
          "internalType": "bool",
          "name": "",
          "type": "bool"
        }
      ],
      "stateMutability": "view",
      "type": "function",
      "constant": true
    },
    {
      "inputs": [],
      "name": "name",
      "outputs": [
        {
          "internalType": "string",
          "name": "",
          "type": "string"
        }
      ],
      "stateMutability": "view",
      "type": "function",
      "constant": true
    },
    {
      "inputs": [],
      "name": "owner",
      "outputs": [
        {
          "internalType": "address",
          "name": "",
          "type": "address"
        }
      ],
      "stateMutability": "view",
      "type": "function",
      "constant": true
    },
    {
      "inputs": [
        {
          "internalType": "uint256",
          "name": "tokenId",
          "type": "uint256"
        }
      ],
      "name": "ownerOf",
      "outputs": [
        {
          "internalType": "address",
          "name": "",
          "type": "address"
        }
      ],
      "stateMutability": "view",
      "type": "function",
      "constant": true
    },
    {
      "inputs": [],
      "name": "renounceOwnership",
      "outputs": [],
      "stateMutability": "nonpayable",
      "type": "function"
    },
    {
      "inputs": [
        {
          "internalType": "address",
          "name": "from",
          "type": "address"
        },
        {
          "internalType": "address",
          "name": "to",
          "type": "address"
        },
        {
          "internalType": "uint256",
          "name": "tokenId",
          "type": "uint256"
        }
      ],
      "name": "safeTransferFrom",
      "outputs": [],
      "stateMutability": "nonpayable",
      "type": "function"
    },
    {
      "inputs": [
        {
          "internalType": "address",
          "name": "from",
          "type": "address"
        },
        {
          "internalType": "address",
          "name": "to",
          "type": "address"
        },
        {
          "internalType": "uint256",
          "name": "tokenId",
          "type": "uint256"
        },
        {
          "internalType": "bytes",
          "name": "_data",
          "type": "bytes"
        }
      ],
      "name": "safeTransferFrom",
      "outputs": [],
      "stateMutability": "nonpayable",
      "type": "function"
    },
    {
      "inputs": [
        {
          "internalType": "address",
          "name": "operator",
          "type": "address"
        },
        {
          "internalType": "bool",
          "name": "approved",
          "type": "bool"
        }
      ],
      "name": "setApprovalForAll",
      "outputs": [],
      "stateMutability": "nonpayable",
      "type": "function"
    },
    {
      "inputs": [
        {
          "internalType": "bytes4",
          "name": "interfaceId",
          "type": "bytes4"
        }
      ],
      "name": "supportsInterface",
      "outputs": [
        {
          "internalType": "bool",
          "name": "",
          "type": "bool"
        }
      ],
      "stateMutability": "view",
      "type": "function",
      "constant": true
    },
    {
      "inputs": [],
      "name": "symbol",
      "outputs": [
        {
          "internalType": "string",
          "name": "",
          "type": "string"
        }
      ],
      "stateMutability": "view",
      "type": "function",
      "constant": true
    },
    {
      "inputs": [
        {
          "internalType": "uint256",
          "name": "index",
          "type": "uint256"
        }
      ],
      "name": "tokenByIndex",
      "outputs": [
        {
          "internalType": "uint256",
          "name": "",
          "type": "uint256"
        }
      ],
      "stateMutability": "view",
      "type": "function",
      "constant": true
    },
    {
      "inputs": [
        {
          "internalType": "address",
          "name": "owner",
          "type": "address"
        },
        {
          "internalType": "uint256",
          "name": "index",
          "type": "uint256"
        }
      ],
      "name": "tokenOfOwnerByIndex",
      "outputs": [
        {
          "internalType": "uint256",
          "name": "",
          "type": "uint256"
        }
      ],
      "stateMutability": "view",
      "type": "function",
      "constant": true
    },
    {
      "inputs": [],
      "name": "tokenOwner",
      "outputs": [
        {
          "internalType": "address",
          "name": "",
          "type": "address"
        }
      ],
      "stateMutability": "view",
      "type": "function",
      "constant": true
    },
    {
      "inputs": [],
      "name": "totalSupply",
      "outputs": [
        {
          "internalType": "uint256",
          "name": "",
          "type": "uint256"
        }
      ],
      "stateMutability": "view",
      "type": "function",
      "constant": true
    },
    {
      "inputs": [
        {
          "internalType": "address",
          "name": "from",
          "type": "address"
        },
        {
          "internalType": "address",
          "name": "to",
          "type": "address"
        },
        {
          "internalType": "uint256",
          "name": "tokenId",
          "type": "uint256"
        }
      ],
      "name": "transferFrom",
      "outputs": [],
      "stateMutability": "nonpayable",
      "type": "function"
    },
    {
      "inputs": [
        {
          "internalType": "address",
          "name": "newOwner",
          "type": "address"
        }
      ],
      "name": "transferOwnership",
      "outputs": [],
      "stateMutability": "nonpayable",
      "type": "function"
    },
    {
      "inputs": [
        {
          "internalType": "address",
          "name": "_coinAddress",
          "type": "address"
        }
      ],
      "name": "setCoinAddress",
      "outputs": [],
      "stateMutability": "nonpayable",
      "type": "function"
    },
    {
      "inputs": [],
      "name": "getOwnerAddress",
      "outputs": [
        {
          "internalType": "address",
          "name": "",
          "type": "address"
        }
      ],
      "stateMutability": "view",
      "type": "function",
      "constant": true
    },
    {
      "inputs": [
        {
          "internalType": "string",
          "name": "_baseTokenURI",
          "type": "string"
        }
      ],
      "name": "setBaseURI",
      "outputs": [],
      "stateMutability": "nonpayable",
      "type": "function"
    },
    {
      "inputs": [],
      "name": "random",
      "outputs": [
        {
          "internalType": "uint256",
          "name": "",
          "type": "uint256"
        }
      ],
      "stateMutability": "nonpayable",
      "type": "function"
    },
    {
      "inputs": [
        {
          "internalType": "address",
          "name": "buyer",
          "type": "address"
        }
      ],
      "name": "buyOneEgg",
      "outputs": [
        {
          "internalType": "uint256",
          "name": "",
          "type": "uint256"
        }
      ],
      "stateMutability": "nonpayable",
      "type": "function"
    },
    {
      "inputs": [
        {
          "internalType": "uint256",
          "name": "tokenId",
          "type": "uint256"
        }
      ],
      "name": "hatchEgg",
      "outputs": [
        {
          "internalType": "uint256",
          "name": "",
          "type": "uint256"
        }
      ],
      "stateMutability": "nonpayable",
      "type": "function"
    },
    {
      "inputs": [
        {
          "internalType": "uint256",
          "name": "tokenId",
          "type": "uint256"
        }
      ],
      "name": "yeetAnimal",
      "outputs": [],
      "stateMutability": "nonpayable",
      "type": "function"
    },
    {
      "inputs": [
        {
          "internalType": "uint256",
          "name": "tokenId1",
          "type": "uint256"
        },
        {
          "internalType": "uint256",
          "name": "tokenId2",
          "type": "uint256"
        }
      ],
      "name": "breed",
      "outputs": [
        {
          "internalType": "uint256",
          "name": "",
          "type": "uint256"
        }
      ],
      "stateMutability": "nonpayable",
      "type": "function"
    },
    {
      "inputs": [
        {
          "internalType": "uint256",
          "name": "_count",
          "type": "uint256"
        }
      ],
      "name": "mintNFTs",
      "outputs": [],
      "stateMutability": "payable",
      "type": "function",
      "payable": true
    },
    {
      "inputs": [
        {
          "internalType": "uint256",
          "name": "tokenId",
          "type": "uint256"
        }
      ],
      "name": "tokenURI",
      "outputs": [
        {
          "internalType": "string",
          "name": "",
          "type": "string"
        }
      ],
      "stateMutability": "view",
      "type": "function",
      "constant": true
    },
    {
      "inputs": [
        {
          "internalType": "address",
          "name": "_owner",
          "type": "address"
        }
      ],
      "name": "tokensOfOwner",
      "outputs": [
        {
          "internalType": "uint256[]",
          "name": "",
          "type": "uint256[]"
        }
      ],
      "stateMutability": "view",
      "type": "function",
      "constant": true
    },
    {
      "inputs": [],
      "name": "withdraw",
      "outputs": [],
      "stateMutability": "payable",
      "type": "function",
      "payable": true
    },
    {
      "inputs": [
        {
          "internalType": "uint256",
          "name": "_count",
          "type": "uint256"
        }
      ],
      "name": "reserveNFTs",
      "outputs": [],
      "stateMutability": "nonpayable",
      "type": "function"
    }
  ],
  "bytecode": "0x60806040526000600e553480156200001657600080fd5b50604051620054ed380380620054ed83398181016040528101906200003c9190620004dd565b818181600090805190602001906200005692919062000290565b5080600190805190602001906200006f92919062000290565b5050506200009262000086620000ed60201b60201c565b620000f560201b60201c565b620000a383620001bb60201b60201c565b33600c60006101000a81548173ffffffffffffffffffffffffffffffffffffffff021916908373ffffffffffffffffffffffffffffffffffffffff1602179055505050506200067d565b600033905090565b6000600a60009054906101000a900473ffffffffffffffffffffffffffffffffffffffff16905081600a60006101000a81548173ffffffffffffffffffffffffffffffffffffffff021916908373ffffffffffffffffffffffffffffffffffffffff1602179055508173ffffffffffffffffffffffffffffffffffffffff168173ffffffffffffffffffffffffffffffffffffffff167f8be0079c531659141344cd1fd0a4f28419497f9722a3daafe3b4186f6b6457e060405160405180910390a35050565b620001cb620000ed60201b60201c565b73ffffffffffffffffffffffffffffffffffffffff16620001f16200026660201b60201c565b73ffffffffffffffffffffffffffffffffffffffff16146200024a576040517f08c379a00000000000000000000000000000000000000000000000000000000081526004016200024190620005f7565b60405180910390fd5b80600f90805190602001906200026292919062000290565b5050565b6000600a60009054906101000a900473ffffffffffffffffffffffffffffffffffffffff16905090565b8280546200029e9062000648565b90600052602060002090601f016020900481019282620002c257600085556200030e565b82601f10620002dd57805160ff19168380011785556200030e565b828001600101855582156200030e579182015b828111156200030d578251825591602001919060010190620002f0565b5b5090506200031d919062000321565b5090565b5b808211156200033c57600081600090555060010162000322565b5090565b6000604051905090565b600080fd5b600080fd5b600080fd5b600080fd5b6000601f19601f8301169050919050565b7f4e487b7100000000000000000000000000000000000000000000000000000000600052604160045260246000fd5b620003a9826200035e565b810181811067ffffffffffffffff82111715620003cb57620003ca6200036f565b5b80604052505050565b6000620003e062000340565b9050620003ee82826200039e565b919050565b600067ffffffffffffffff8211156200041157620004106200036f565b5b6200041c826200035e565b9050602081019050919050565b60005b83811015620004495780820151818401526020810190506200042c565b8381111562000459576000848401525b50505050565b6000620004766200047084620003f3565b620003d4565b90508281526020810184848401111562000495576200049462000359565b5b620004a284828562000429565b509392505050565b600082601f830112620004c257620004c162000354565b5b8151620004d48482602086016200045f565b91505092915050565b600080600060608486031215620004f957620004f86200034a565b5b600084015167ffffffffffffffff8111156200051a57620005196200034f565b5b6200052886828701620004aa565b935050602084015167ffffffffffffffff8111156200054c576200054b6200034f565b5b6200055a86828701620004aa565b925050604084015167ffffffffffffffff8111156200057e576200057d6200034f565b5b6200058c86828701620004aa565b9150509250925092565b600082825260208201905092915050565b7f4f776e61626c653a2063616c6c6572206973206e6f7420746865206f776e6572600082015250565b6000620005df60208362000596565b9150620005ec82620005a7565b602082019050919050565b600060208201905081810360008301526200061281620005d0565b9050919050565b7f4e487b7100000000000000000000000000000000000000000000000000000000600052602260045260246000fd5b600060028204905060018216806200066157607f821691505b60208210810362000677576200067662000619565b5b50919050565b614e60806200068d6000396000f3fe60806040526004361061021a5760003560e01c8063601f9f2b11610123578063a3e67610116100ab578063d547cfb71161006f578063d547cfb7146107dd578063d9ecad7b14610808578063e985e9c514610845578063f2fde38b14610882578063fdc61dd1146108ab5761021a565b8063a3e67610146106fa578063b0bdacc614610725578063b88d4fde1461074e578063bc7df09114610777578063c87b56dd146107a05761021a565b80638462151c116100f25780638462151c146106135780638d859f3e146106505780638da5cb5b1461067b57806395d89b41146106a6578063a22cb465146106d15761021a565b8063601f9f2b146105595780636352211e1461058257806370a08231146105bf578063715018a6146105fc5761021a565b80632f745c59116101a657806342842e0e1161017557806342842e0e146104625780634f6ccce71461048b57806355f804b3146104c857806358db1fb4146104f15780635ec01e4d1461052e5761021a565b80632f745c59146103d457806332cb6b0c146104115780633b4b13811461043c5780633ccfd60b146104585761021a565b806309d42b30116101ed57806309d42b30146102ed5780630c4f65bd1461031857806318160ddd146103435780632385554c1461036e57806323b872dd146103ab5761021a565b806301ffc9a71461021f57806306fdde031461025c578063081812fc14610287578063095ea7b3146102c4575b600080fd5b34801561022b57600080fd5b50610246600480360381019061024191906131b7565b6108d6565b60405161025391906131ff565b60405180910390f35b34801561026857600080fd5b50610271610950565b60405161027e91906132b3565b60405180910390f35b34801561029357600080fd5b506102ae60048036038101906102a9919061330b565b6109e2565b6040516102bb9190613379565b60405180910390f35b3480156102d057600080fd5b506102eb60048036038101906102e691906133c0565b610a67565b005b3480156102f957600080fd5b50610302610b7e565b60405161030f919061340f565b60405180910390f35b34801561032457600080fd5b5061032d610b83565b60405161033a9190613379565b60405180910390f35b34801561034f57600080fd5b50610358610bad565b604051610365919061340f565b60405180910390f35b34801561037a57600080fd5b506103956004803603810190610390919061330b565b610bba565b6040516103a2919061340f565b60405180910390f35b3480156103b757600080fd5b506103d260048036038101906103cd919061342a565b610cff565b005b3480156103e057600080fd5b506103fb60048036038101906103f691906133c0565b610d5f565b604051610408919061340f565b60405180910390f35b34801561041d57600080fd5b50610426610e04565b604051610433919061340f565b60405180910390f35b6104566004803603810190610451919061330b565b610e0a565b005b610460610f45565b005b34801561046e57600080fd5b506104896004803603810190610484919061342a565b6110b9565b005b34801561049757600080fd5b506104b260048036038101906104ad919061330b565b6110d9565b6040516104bf919061340f565b60405180910390f35b3480156104d457600080fd5b506104ef60048036038101906104ea91906135b2565b61114a565b005b3480156104fd57600080fd5b50610518600480360381019061051391906135fb565b6111e0565b604051610525919061340f565b60405180910390f35b34801561053a57600080fd5b506105436112fd565b604051610550919061340f565b60405180910390f35b34801561056557600080fd5b50610580600480360381019061057b919061330b565b61134a565b005b34801561058e57600080fd5b506105a960048036038101906105a4919061330b565b61137a565b6040516105b69190613379565b60405180910390f35b3480156105cb57600080fd5b506105e660048036038101906105e191906135fb565b61142b565b6040516105f3919061340f565b60405180910390f35b34801561060857600080fd5b506106116114e2565b005b34801561061f57600080fd5b5061063a600480360381019061063591906135fb565b61156a565b60405161064791906136e6565b60405180910390f35b34801561065c57600080fd5b50610665611618565b604051610672919061340f565b60405180910390f35b34801561068757600080fd5b50610690611622565b60405161069d9190613379565b60405180910390f35b3480156106b257600080fd5b506106bb61164c565b6040516106c891906132b3565b60405180910390f35b3480156106dd57600080fd5b506106f860048036038101906106f39190613734565b6116de565b005b34801561070657600080fd5b5061070f6116f4565b60405161071c9190613379565b60405180910390f35b34801561073157600080fd5b5061074c600480360381019061074791906135fb565b61171a565b005b34801561075a57600080fd5b5061077560048036038101906107709190613815565b6117ee565b005b34801561078357600080fd5b5061079e6004803603810190610799919061330b565b611850565b005b3480156107ac57600080fd5b506107c760048036038101906107c2919061330b565b61195b565b6040516107d491906132b3565b60405180910390f35b3480156107e957600080fd5b506107f2611b13565b6040516107ff91906132b3565b60405180910390f35b34801561081457600080fd5b5061082f600480360381019061082a9190613898565b611ba1565b60405161083c919061340f565b60405180910390f35b34801561085157600080fd5b5061086c600480360381019061086791906138d8565b611d79565b60405161087991906131ff565b60405180910390f35b34801561088e57600080fd5b506108a960048036038101906108a491906135fb565b611e0d565b005b3480156108b757600080fd5b506108c0611f04565b6040516108cd9190613379565b60405180910390f35b60007f780e9d63000000000000000000000000000000000000000000000000000000007bffffffffffffffffffffffffffffffffffffffffffffffffffffffff1916827bffffffffffffffffffffffffffffffffffffffffffffffffffffffff19161480610949575061094882611f2a565b5b9050919050565b60606000805461095f90613947565b80601f016020809104026020016040519081016040528092919081815260200182805461098b90613947565b80156109d85780601f106109ad576101008083540402835291602001916109d8565b820191906000526020600020905b8154815290600101906020018083116109bb57829003601f168201915b5050505050905090565b60006109ed8261200c565b610a2c576040517f08c379a0000000000000000000000000000000000000000000000000000000008152600401610a23906139ea565b60405180910390fd5b6004600083815260200190815260200160002060009054906101000a900473ffffffffffffffffffffffffffffffffffffffff169050919050565b6000610a728261137a565b90508073ffffffffffffffffffffffffffffffffffffffff168373ffffffffffffffffffffffffffffffffffffffff1603610ae2576040517f08c379a0000000000000000000000000000000000000000000000000000000008152600401610ad990613a7c565b60405180910390fd5b8073ffffffffffffffffffffffffffffffffffffffff16610b01612078565b73ffffffffffffffffffffffffffffffffffffffff161480610b305750610b2f81610b2a612078565b611d79565b5b610b6f576040517f08c379a0000000000000000000000000000000000000000000000000000000008152600401610b6690613b0e565b60405180910390fd5b610b798383612080565b505050565b600581565b6000600c60009054906101000a900473ffffffffffffffffffffffffffffffffffffffff16905090565b6000600880549050905090565b600080610bc68361137a565b90508073ffffffffffffffffffffffffffffffffffffffff163373ffffffffffffffffffffffffffffffffffffffff1614610c36576040517f08c379a0000000000000000000000000000000000000000000000000000000008152600401610c2d90613b7a565b60405180910390fd5b6000600f8416905060008114610c81576040517f08c379a0000000000000000000000000000000000000000000000000000000008152600401610c7890613be6565b60405180910390fd5b600060016003610c8f6112fd565b610c999190613c35565b610ca39190613c95565b90506000610cb082612139565b9050610cbc3382612166565b610ce933600c60009054906101000a900473ffffffffffffffffffffffffffffffffffffffff1688610cff565b610cf3600b612184565b80945050505050919050565b610d10610d0a612078565b8261219a565b610d4f576040517f08c379a0000000000000000000000000000000000000000000000000000000008152600401610d4690613d5d565b60405180910390fd5b610d5a838383612278565b505050565b6000610d6a8361142b565b8210610dab576040517f08c379a0000000000000000000000000000000000000000000000000000000008152600401610da290613def565b60405180910390fd5b600660008473ffffffffffffffffffffffffffffffffffffffff1673ffffffffffffffffffffffffffffffffffffffff168152602001908152602001600020600083815260200190815260200160002054905092915050565b61271081565b6000610e16600b6124de565b9050612710610e2e83836124ec90919063ffffffff16565b1115610e6f576040517f08c379a0000000000000000000000000000000000000000000000000000000008152600401610e6690613e5b565b60405180910390fd5b600082118015610e80575060058211155b610ebf576040517f08c379a0000000000000000000000000000000000000000000000000000000008152600401610eb690613eed565b60405180910390fd5b610ed8826509184e72a00061250290919063ffffffff16565b341015610f1a576040517f08c379a0000000000000000000000000000000000000000000000000000000008152600401610f1190613f7f565b60405180910390fd5b60005b82811015610f4057610f2d612518565b8080610f3890613f9f565b915050610f1d565b505050565b610f4d612078565b73ffffffffffffffffffffffffffffffffffffffff16610f6b611622565b73ffffffffffffffffffffffffffffffffffffffff1614610fc1576040517f08c379a0000000000000000000000000000000000000000000000000000000008152600401610fb890614033565b60405180910390fd5b600047905060008111611009576040517f08c379a00000000000000000000000000000000000000000000000000000000081526004016110009061409f565b60405180910390fd5b60003373ffffffffffffffffffffffffffffffffffffffff168260405161102f906140f0565b60006040518083038185875af1925050503d806000811461106c576040519150601f19603f3d011682016040523d82523d6000602084013e611071565b606091505b50509050806110b5576040517f08c379a00000000000000000000000000000000000000000000000000000000081526004016110ac90614151565b60405180910390fd5b5050565b6110d4838383604051806020016040528060008152506117ee565b505050565b60006110e3610bad565b8210611124576040517f08c379a000000000000000000000000000000000000000000000000000000000815260040161111b906141e3565b60405180910390fd5b6008828154811061113857611137614203565b5b90600052602060002001549050919050565b611152612078565b73ffffffffffffffffffffffffffffffffffffffff16611170611622565b73ffffffffffffffffffffffffffffffffffffffff16146111c6576040517f08c379a00000000000000000000000000000000000000000000000000000000081526004016111bd90614033565b60405180910390fd5b80600f90805190602001906111dc9291906130a8565b5050565b6000600d60009054906101000a900473ffffffffffffffffffffffffffffffffffffffff1673ffffffffffffffffffffffffffffffffffffffff163373ffffffffffffffffffffffffffffffffffffffff1614611272576040517f08c379a0000000000000000000000000000000000000000000000000000000008152600401611269906142a4565b60405180910390fd5b600061127e600b6124de565b9050600161271061128f91906142c4565b8111156112d1576040517f08c379a00000000000000000000000000000000000000000000000000000000081526004016112c890613e5b565b60405180910390fd5b60006112dd6000612139565b90506112e98482612166565b6112f3600b612184565b8092505050919050565b60006001600e60008282546113129190613c95565b92505081905550600e5460405160200161132c9190614319565b6040516020818303038152906040528051906020012060001c905090565b61137733600c60009054906101000a900473ffffffffffffffffffffffffffffffffffffffff1683610cff565b50565b6000806002600084815260200190815260200160002060009054906101000a900473ffffffffffffffffffffffffffffffffffffffff169050600073ffffffffffffffffffffffffffffffffffffffff168173ffffffffffffffffffffffffffffffffffffffff1603611422576040517f08c379a0000000000000000000000000000000000000000000000000000000008152600401611419906143a6565b60405180910390fd5b80915050919050565b60008073ffffffffffffffffffffffffffffffffffffffff168273ffffffffffffffffffffffffffffffffffffffff160361149b576040517f08c379a000000000000000000000000000000000000000000000000000000000815260040161149290614438565b60405180910390fd5b600360008373ffffffffffffffffffffffffffffffffffffffff1673ffffffffffffffffffffffffffffffffffffffff168152602001908152602001600020549050919050565b6114ea612078565b73ffffffffffffffffffffffffffffffffffffffff16611508611622565b73ffffffffffffffffffffffffffffffffffffffff161461155e576040517f08c379a000000000000000000000000000000000000000000000000000000000815260040161155590614033565b60405180910390fd5b611568600061256b565b565b606060006115778361142b565b905060008167ffffffffffffffff81111561159557611594613487565b5b6040519080825280602002602001820160405280156115c35781602001602082028036833780820191505090505b50905060005b8281101561160d576115db8582610d5f565b8282815181106115ee576115ed614203565b5b602002602001018181525050808061160590613f9f565b9150506115c9565b508092505050919050565b6509184e72a00081565b6000600a60009054906101000a900473ffffffffffffffffffffffffffffffffffffffff16905090565b60606001805461165b90613947565b80601f016020809104026020016040519081016040528092919081815260200182805461168790613947565b80156116d45780601f106116a9576101008083540402835291602001916116d4565b820191906000526020600020905b8154815290600101906020018083116116b757829003601f168201915b5050505050905090565b6116f06116e9612078565b8383612631565b5050565b600c60009054906101000a900473ffffffffffffffffffffffffffffffffffffffff1681565b600c60009054906101000a900473ffffffffffffffffffffffffffffffffffffffff1673ffffffffffffffffffffffffffffffffffffffff163373ffffffffffffffffffffffffffffffffffffffff16146117aa576040517f08c379a00000000000000000000000000000000000000000000000000000000081526004016117a1906144a4565b60405180910390fd5b80600d60006101000a81548173ffffffffffffffffffffffffffffffffffffffff021916908373ffffffffffffffffffffffffffffffffffffffff16021790555050565b6117ff6117f9612078565b8361219a565b61183e576040517f08c379a000000000000000000000000000000000000000000000000000000000815260040161183590613d5d565b60405180910390fd5b61184a8484848461279d565b50505050565b611858612078565b73ffffffffffffffffffffffffffffffffffffffff16611876611622565b73ffffffffffffffffffffffffffffffffffffffff16146118cc576040517f08c379a00000000000000000000000000000000000000000000000000000000081526004016118c390614033565b60405180910390fd5b60006118d8600b6124de565b90506127106118f083836124ec90919063ffffffff16565b10611930576040517f08c379a000000000000000000000000000000000000000000000000000000000815260040161192790614510565b60405180910390fd5b60005b8281101561195657611943612518565b808061194e90613f9f565b915050611933565b505050565b60606000600f83169050600081101580156119765750600781105b6119b5576040517f08c379a00000000000000000000000000000000000000000000000000000000081526004016119ac9061457c565b60405180910390fd5b600081036119de57604051806060016040528060408152602001614cab60409139915050611b0e565b60018103611a0757604051806060016040528060408152602001614ceb60409139915050611b0e565b60028103611a3057604051806060016040528060408152602001614d6b60409139915050611b0e565b60038103611a5957604051806060016040528060408152602001614dab60409139915050611b0e565b60048103611a8257604051806060016040528060408152602001614d2b60409139915050611b0e565b60058103611aab57604051806060016040528060408152602001614deb60409139915050611b0e565b60068103611ad457604051806060016040528060408152602001614c6b60409139915050611b0e565b6040518060400160405280600681526020017f6e6f7445676700000000000000000000000000000000000000000000000000008152509150505b919050565b600f8054611b2090613947565b80601f0160208091040260200160405190810160405280929190818152602001828054611b4c90613947565b8015611b995780601f10611b6e57610100808354040283529160200191611b99565b820191906000526020600020905b815481529060010190602001808311611b7c57829003601f168201915b505050505081565b600080611bad8461137a565b90506000611bba8461137a565b90508173ffffffffffffffffffffffffffffffffffffffff163373ffffffffffffffffffffffffffffffffffffffff1614611c2a576040517f08c379a0000000000000000000000000000000000000000000000000000000008152600401611c2190613b7a565b60405180910390fd5b8073ffffffffffffffffffffffffffffffffffffffff168273ffffffffffffffffffffffffffffffffffffffff1614611c98576040517f08c379a0000000000000000000000000000000000000000000000000000000008152600401611c8f906145e8565b60405180910390fd5b6000600f861690506000600f8616905060008214158015611cba575060008114155b611cf9576040517f08c379a0000000000000000000000000000000000000000000000000000000008152600401611cf090614654565b60405180910390fd5b808203611d3b576040517f08c379a0000000000000000000000000000000000000000000000000000000008152600401611d32906146c0565b60405180910390fd5b6000611d4783836127f9565b90506000611d5482612139565b9050611d603382612166565b611d6a600b612184565b80965050505050505092915050565b6000600560008473ffffffffffffffffffffffffffffffffffffffff1673ffffffffffffffffffffffffffffffffffffffff16815260200190815260200160002060008373ffffffffffffffffffffffffffffffffffffffff1673ffffffffffffffffffffffffffffffffffffffff16815260200190815260200160002060009054906101000a900460ff16905092915050565b611e15612078565b73ffffffffffffffffffffffffffffffffffffffff16611e33611622565b73ffffffffffffffffffffffffffffffffffffffff1614611e89576040517f08c379a0000000000000000000000000000000000000000000000000000000008152600401611e8090614033565b60405180910390fd5b600073ffffffffffffffffffffffffffffffffffffffff168173ffffffffffffffffffffffffffffffffffffffff1603611ef8576040517f08c379a0000000000000000000000000000000000000000000000000000000008152600401611eef90614752565b60405180910390fd5b611f018161256b565b50565b600d60009054906101000a900473ffffffffffffffffffffffffffffffffffffffff1681565b60007f80ac58cd000000000000000000000000000000000000000000000000000000007bffffffffffffffffffffffffffffffffffffffffffffffffffffffff1916827bffffffffffffffffffffffffffffffffffffffffffffffffffffffff19161480611ff557507f5b5e139f000000000000000000000000000000000000000000000000000000007bffffffffffffffffffffffffffffffffffffffffffffffffffffffff1916827bffffffffffffffffffffffffffffffffffffffffffffffffffffffff1916145b8061200557506120048261283e565b5b9050919050565b60008073ffffffffffffffffffffffffffffffffffffffff166002600084815260200190815260200160002060009054906101000a900473ffffffffffffffffffffffffffffffffffffffff1673ffffffffffffffffffffffffffffffffffffffff1614159050919050565b600033905090565b816004600083815260200190815260200160002060006101000a81548173ffffffffffffffffffffffffffffffffffffffff021916908373ffffffffffffffffffffffffffffffffffffffff160217905550808273ffffffffffffffffffffffffffffffffffffffff166120f38361137a565b73ffffffffffffffffffffffffffffffffffffffff167f8c5be1e5ebec7d5bd14f71427d1e84f3dd0314c0f7b2291e5b200ac8c7c3b92560405160405180910390a45050565b600080612146600b6124de565b9050601081901b9050828161215b9190613c95565b905080915050919050565b6121808282604051806020016040528060008152506128a8565b5050565b6001816000016000828254019250508190555050565b60006121a58261200c565b6121e4576040517f08c379a00000000000000000000000000000000000000000000000000000000081526004016121db906147e4565b60405180910390fd5b60006121ef8361137a565b90508073ffffffffffffffffffffffffffffffffffffffff168473ffffffffffffffffffffffffffffffffffffffff16148061223157506122308185611d79565b5b8061226f57508373ffffffffffffffffffffffffffffffffffffffff16612257846109e2565b73ffffffffffffffffffffffffffffffffffffffff16145b91505092915050565b8273ffffffffffffffffffffffffffffffffffffffff166122988261137a565b73ffffffffffffffffffffffffffffffffffffffff16146122ee576040517f08c379a00000000000000000000000000000000000000000000000000000000081526004016122e590614876565b60405180910390fd5b600073ffffffffffffffffffffffffffffffffffffffff168273ffffffffffffffffffffffffffffffffffffffff160361235d576040517f08c379a000000000000000000000000000000000000000000000000000000000815260040161235490614908565b60405180910390fd5b612368838383612903565b612373600082612080565b6001600360008573ffffffffffffffffffffffffffffffffffffffff1673ffffffffffffffffffffffffffffffffffffffff16815260200190815260200160002060008282546123c391906142c4565b925050819055506001600360008473ffffffffffffffffffffffffffffffffffffffff1673ffffffffffffffffffffffffffffffffffffffff168152602001908152602001600020600082825461241a9190613c95565b92505081905550816002600083815260200190815260200160002060006101000a81548173ffffffffffffffffffffffffffffffffffffffff021916908373ffffffffffffffffffffffffffffffffffffffff160217905550808273ffffffffffffffffffffffffffffffffffffffff168473ffffffffffffffffffffffffffffffffffffffff167fddf252ad1be2c89b69c2b068fc378daa952ba7f163c4a11628f55a4df523b3ef60405160405180910390a46124d9838383612a15565b505050565b600081600001549050919050565b600081836124fa9190613c95565b905092915050565b600081836125109190614928565b905092915050565b6000612524600b6124de565b9050601081901b905060006125376112fd565b90506003816125469190613c35565b826125519190613c95565b915061255d3383612166565b612567600b612184565b5050565b6000600a60009054906101000a900473ffffffffffffffffffffffffffffffffffffffff16905081600a60006101000a81548173ffffffffffffffffffffffffffffffffffffffff021916908373ffffffffffffffffffffffffffffffffffffffff1602179055508173ffffffffffffffffffffffffffffffffffffffff168173ffffffffffffffffffffffffffffffffffffffff167f8be0079c531659141344cd1fd0a4f28419497f9722a3daafe3b4186f6b6457e060405160405180910390a35050565b8173ffffffffffffffffffffffffffffffffffffffff168373ffffffffffffffffffffffffffffffffffffffff160361269f576040517f08c379a0000000000000000000000000000000000000000000000000000000008152600401612696906149ce565b60405180910390fd5b80600560008573ffffffffffffffffffffffffffffffffffffffff1673ffffffffffffffffffffffffffffffffffffffff16815260200190815260200160002060008473ffffffffffffffffffffffffffffffffffffffff1673ffffffffffffffffffffffffffffffffffffffff16815260200190815260200160002060006101000a81548160ff0219169083151502179055508173ffffffffffffffffffffffffffffffffffffffff168373ffffffffffffffffffffffffffffffffffffffff167f17307eab39ab6107e8899845ad3d59bd9653f200f220920489ca2b5937696c318360405161279091906131ff565b60405180910390a3505050565b6127a8848484612278565b6127b484848484612a1a565b6127f3576040517f08c379a00000000000000000000000000000000000000000000000000000000081526004016127ea90614a60565b60405180910390fd5b50505050565b6000600382846128099190613c95565b116128175760049050612838565b600582846128259190613c95565b036128335760069050612838565b600590505b92915050565b60007f01ffc9a7000000000000000000000000000000000000000000000000000000007bffffffffffffffffffffffffffffffffffffffffffffffffffffffff1916827bffffffffffffffffffffffffffffffffffffffffffffffffffffffff1916149050919050565b6128b28383612ba1565b6128bf6000848484612a1a565b6128fe576040517f08c379a00000000000000000000000000000000000000000000000000000000081526004016128f590614a60565b60405180910390fd5b505050565b61290e838383612d7a565b600073ffffffffffffffffffffffffffffffffffffffff168373ffffffffffffffffffffffffffffffffffffffff16036129505761294b81612d7f565b61298f565b8173ffffffffffffffffffffffffffffffffffffffff168373ffffffffffffffffffffffffffffffffffffffff161461298e5761298d8382612dc8565b5b5b600073ffffffffffffffffffffffffffffffffffffffff168273ffffffffffffffffffffffffffffffffffffffff16036129d1576129cc81612f35565b612a10565b8273ffffffffffffffffffffffffffffffffffffffff168273ffffffffffffffffffffffffffffffffffffffff1614612a0f57612a0e8282613006565b5b5b505050565b505050565b6000612a3b8473ffffffffffffffffffffffffffffffffffffffff16613085565b15612b94578373ffffffffffffffffffffffffffffffffffffffff1663150b7a02612a64612078565b8786866040518563ffffffff1660e01b8152600401612a869493929190614ad5565b6020604051808303816000875af1925050508015612ac257506040513d601f19601f82011682018060405250810190612abf9190614b36565b60015b612b44573d8060008114612af2576040519150601f19603f3d011682016040523d82523d6000602084013e612af7565b606091505b506000815103612b3c576040517f08c379a0000000000000000000000000000000000000000000000000000000008152600401612b3390614a60565b60405180910390fd5b805181602001fd5b63150b7a0260e01b7bffffffffffffffffffffffffffffffffffffffffffffffffffffffff1916817bffffffffffffffffffffffffffffffffffffffffffffffffffffffff191614915050612b99565b600190505b949350505050565b600073ffffffffffffffffffffffffffffffffffffffff168273ffffffffffffffffffffffffffffffffffffffff1603612c10576040517f08c379a0000000000000000000000000000000000000000000000000000000008152600401612c0790614baf565b60405180910390fd5b612c198161200c565b15612c59576040517f08c379a0000000000000000000000000000000000000000000000000000000008152600401612c5090614c1b565b60405180910390fd5b612c6560008383612903565b6001600360008473ffffffffffffffffffffffffffffffffffffffff1673ffffffffffffffffffffffffffffffffffffffff1681526020019081526020016000206000828254612cb59190613c95565b92505081905550816002600083815260200190815260200160002060006101000a81548173ffffffffffffffffffffffffffffffffffffffff021916908373ffffffffffffffffffffffffffffffffffffffff160217905550808273ffffffffffffffffffffffffffffffffffffffff16600073ffffffffffffffffffffffffffffffffffffffff167fddf252ad1be2c89b69c2b068fc378daa952ba7f163c4a11628f55a4df523b3ef60405160405180910390a4612d7660008383612a15565b5050565b505050565b6008805490506009600083815260200190815260200160002081905550600881908060018154018082558091505060019003906000526020600020016000909190919091505550565b60006001612dd58461142b565b612ddf91906142c4565b9050600060076000848152602001908152602001600020549050818114612ec4576000600660008673ffffffffffffffffffffffffffffffffffffffff1673ffffffffffffffffffffffffffffffffffffffff168152602001908152602001600020600084815260200190815260200160002054905080600660008773ffffffffffffffffffffffffffffffffffffffff1673ffffffffffffffffffffffffffffffffffffffff168152602001908152602001600020600084815260200190815260200160002081905550816007600083815260200190815260200160002081905550505b6007600084815260200190815260200160002060009055600660008573ffffffffffffffffffffffffffffffffffffffff1673ffffffffffffffffffffffffffffffffffffffff16815260200190815260200160002060008381526020019081526020016000206000905550505050565b60006001600880549050612f4991906142c4565b9050600060096000848152602001908152602001600020549050600060088381548110612f7957612f78614203565b5b906000526020600020015490508060088381548110612f9b57612f9a614203565b5b906000526020600020018190555081600960008381526020019081526020016000208190555060096000858152602001908152602001600020600090556008805480612fea57612fe9614c3b565b5b6001900381819060005260206000200160009055905550505050565b60006130118361142b565b905081600660008573ffffffffffffffffffffffffffffffffffffffff1673ffffffffffffffffffffffffffffffffffffffff168152602001908152602001600020600083815260200190815260200160002081905550806007600084815260200190815260200160002081905550505050565b6000808273ffffffffffffffffffffffffffffffffffffffff163b119050919050565b8280546130b490613947565b90600052602060002090601f0160209004810192826130d6576000855561311d565b82601f106130ef57805160ff191683800117855561311d565b8280016001018555821561311d579182015b8281111561311c578251825591602001919060010190613101565b5b50905061312a919061312e565b5090565b5b8082111561314757600081600090555060010161312f565b5090565b6000604051905090565b600080fd5b600080fd5b60007fffffffff0000000000000000000000000000000000000000000000000000000082169050919050565b6131948161315f565b811461319f57600080fd5b50565b6000813590506131b18161318b565b92915050565b6000602082840312156131cd576131cc613155565b5b60006131db848285016131a2565b91505092915050565b60008115159050919050565b6131f9816131e4565b82525050565b600060208201905061321460008301846131f0565b92915050565b600081519050919050565b600082825260208201905092915050565b60005b83811015613254578082015181840152602081019050613239565b83811115613263576000848401525b50505050565b6000601f19601f8301169050919050565b60006132858261321a565b61328f8185613225565b935061329f818560208601613236565b6132a881613269565b840191505092915050565b600060208201905081810360008301526132cd818461327a565b905092915050565b6000819050919050565b6132e8816132d5565b81146132f357600080fd5b50565b600081359050613305816132df565b92915050565b60006020828403121561332157613320613155565b5b600061332f848285016132f6565b91505092915050565b600073ffffffffffffffffffffffffffffffffffffffff82169050919050565b600061336382613338565b9050919050565b61337381613358565b82525050565b600060208201905061338e600083018461336a565b92915050565b61339d81613358565b81146133a857600080fd5b50565b6000813590506133ba81613394565b92915050565b600080604083850312156133d7576133d6613155565b5b60006133e5858286016133ab565b92505060206133f6858286016132f6565b9150509250929050565b613409816132d5565b82525050565b60006020820190506134246000830184613400565b92915050565b60008060006060848603121561344357613442613155565b5b6000613451868287016133ab565b9350506020613462868287016133ab565b9250506040613473868287016132f6565b9150509250925092565b600080fd5b600080fd5b7f4e487b7100000000000000000000000000000000000000000000000000000000600052604160045260246000fd5b6134bf82613269565b810181811067ffffffffffffffff821117156134de576134dd613487565b5b80604052505050565b60006134f161314b565b90506134fd82826134b6565b919050565b600067ffffffffffffffff82111561351d5761351c613487565b5b61352682613269565b9050602081019050919050565b82818337600083830152505050565b600061355561355084613502565b6134e7565b90508281526020810184848401111561357157613570613482565b5b61357c848285613533565b509392505050565b600082601f8301126135995761359861347d565b5b81356135a9848260208601613542565b91505092915050565b6000602082840312156135c8576135c7613155565b5b600082013567ffffffffffffffff8111156135e6576135e561315a565b5b6135f284828501613584565b91505092915050565b60006020828403121561361157613610613155565b5b600061361f848285016133ab565b91505092915050565b600081519050919050565b600082825260208201905092915050565b6000819050602082019050919050565b61365d816132d5565b82525050565b600061366f8383613654565b60208301905092915050565b6000602082019050919050565b600061369382613628565b61369d8185613633565b93506136a883613644565b8060005b838110156136d95781516136c08882613663565b97506136cb8361367b565b9250506001810190506136ac565b5085935050505092915050565b600060208201905081810360008301526137008184613688565b905092915050565b613711816131e4565b811461371c57600080fd5b50565b60008135905061372e81613708565b92915050565b6000806040838503121561374b5761374a613155565b5b6000613759858286016133ab565b925050602061376a8582860161371f565b9150509250929050565b600067ffffffffffffffff82111561378f5761378e613487565b5b61379882613269565b9050602081019050919050565b60006137b86137b384613774565b6134e7565b9050828152602081018484840111156137d4576137d3613482565b5b6137df848285613533565b509392505050565b600082601f8301126137fc576137fb61347d565b5b813561380c8482602086016137a5565b91505092915050565b6000806000806080858703121561382f5761382e613155565b5b600061383d878288016133ab565b945050602061384e878288016133ab565b935050604061385f878288016132f6565b925050606085013567ffffffffffffffff8111156138805761387f61315a565b5b61388c878288016137e7565b91505092959194509250565b600080604083850312156138af576138ae613155565b5b60006138bd858286016132f6565b92505060206138ce858286016132f6565b9150509250929050565b600080604083850312156138ef576138ee613155565b5b60006138fd858286016133ab565b925050602061390e858286016133ab565b9150509250929050565b7f4e487b7100000000000000000000000000000000000000000000000000000000600052602260045260246000fd5b6000600282049050600182168061395f57607f821691505b60208210810361397257613971613918565b5b50919050565b7f4552433732313a20617070726f76656420717565727920666f72206e6f6e657860008201527f697374656e7420746f6b656e0000000000000000000000000000000000000000602082015250565b60006139d4602c83613225565b91506139df82613978565b604082019050919050565b60006020820190508181036000830152613a03816139c7565b9050919050565b7f4552433732313a20617070726f76616c20746f2063757272656e74206f776e6560008201527f7200000000000000000000000000000000000000000000000000000000000000602082015250565b6000613a66602183613225565b9150613a7182613a0a565b604082019050919050565b60006020820190508181036000830152613a9581613a59565b9050919050565b7f4552433732313a20617070726f76652063616c6c6572206973206e6f74206f7760008201527f6e6572206e6f7220617070726f76656420666f7220616c6c0000000000000000602082015250565b6000613af8603883613225565b9150613b0382613a9c565b604082019050919050565b60006020820190508181036000830152613b2781613aeb565b9050919050565b7f4973206e6f74206f776e65720000000000000000000000000000000000000000600082015250565b6000613b64600c83613225565b9150613b6f82613b2e565b602082019050919050565b60006020820190508181036000830152613b9381613b57565b9050919050565b7f4973206e6f742065676700000000000000000000000000000000000000000000600082015250565b6000613bd0600a83613225565b9150613bdb82613b9a565b602082019050919050565b60006020820190508181036000830152613bff81613bc3565b9050919050565b7f4e487b7100000000000000000000000000000000000000000000000000000000600052601260045260246000fd5b6000613c40826132d5565b9150613c4b836132d5565b925082613c5b57613c5a613c06565b5b828206905092915050565b7f4e487b7100000000000000000000000000000000000000000000000000000000600052601160045260246000fd5b6000613ca0826132d5565b9150613cab836132d5565b9250827fffffffffffffffffffffffffffffffffffffffffffffffffffffffffffffffff03821115613ce057613cdf613c66565b5b828201905092915050565b7f4552433732313a207472616e736665722063616c6c6572206973206e6f74206f60008201527f776e6572206e6f7220617070726f766564000000000000000000000000000000602082015250565b6000613d47603183613225565b9150613d5282613ceb565b604082019050919050565b60006020820190508181036000830152613d7681613d3a565b9050919050565b7f455243373231456e756d657261626c653a206f776e657220696e646578206f7560008201527f74206f6620626f756e6473000000000000000000000000000000000000000000602082015250565b6000613dd9602b83613225565b9150613de482613d7d565b604082019050919050565b60006020820190508181036000830152613e0881613dcc565b9050919050565b7f5468697320636f6c6c656374696f6e20697320736f6c64206f75742100000000600082015250565b6000613e45601c83613225565b9150613e5082613e0f565b602082019050919050565b60006020820190508181036000830152613e7481613e38565b9050919050565b7f596f75206861766520726563656976656420746865206d6178696d756d20616d60008201527f6f756e74206f66204e46547320616c6c6f7765642e0000000000000000000000602082015250565b6000613ed7603583613225565b9150613ee282613e7b565b604082019050919050565b60006020820190508181036000830152613f0681613eca565b9050919050565b7f4e6f7420656e6f75676820657468657220746f207075726368617365204e465460008201527f732e000000000000000000000000000000000000000000000000000000000000602082015250565b6000613f69602283613225565b9150613f7482613f0d565b604082019050919050565b60006020820190508181036000830152613f9881613f5c565b9050919050565b6000613faa826132d5565b91507fffffffffffffffffffffffffffffffffffffffffffffffffffffffffffffffff8203613fdc57613fdb613c66565b5b600182019050919050565b7f4f776e61626c653a2063616c6c6572206973206e6f7420746865206f776e6572600082015250565b600061401d602083613225565b915061402882613fe7565b602082019050919050565b6000602082019050818103600083015261404c81614010565b9050919050565b7f4e6f206574686572206c65667420746f20776974686472617700000000000000600082015250565b6000614089601983613225565b915061409482614053565b602082019050919050565b600060208201905081810360008301526140b88161407c565b9050919050565b600081905092915050565b50565b60006140da6000836140bf565b91506140e5826140ca565b600082019050919050565b60006140fb826140cd565b9150819050919050565b7f5472616e73666572206661696c65642e00000000000000000000000000000000600082015250565b600061413b601083613225565b915061414682614105565b602082019050919050565b6000602082019050818103600083015261416a8161412e565b9050919050565b7f455243373231456e756d657261626c653a20676c6f62616c20696e646578206f60008201527f7574206f6620626f756e64730000000000000000000000000000000000000000602082015250565b60006141cd602c83613225565b91506141d882614171565b604082019050919050565b600060208201905081810360008301526141fc816141c0565b9050919050565b7f4e487b7100000000000000000000000000000000000000000000000000000000600052603260045260246000fd5b7f53656e646572206973206e6f7420636f696e20636f6e7472616374206164647260008201527f6573730000000000000000000000000000000000000000000000000000000000602082015250565b600061428e602383613225565b915061429982614232565b604082019050919050565b600060208201905081810360008301526142bd81614281565b9050919050565b60006142cf826132d5565b91506142da836132d5565b9250828210156142ed576142ec613c66565b5b828203905092915050565b6000819050919050565b61431361430e826132d5565b6142f8565b82525050565b60006143258284614302565b60208201915081905092915050565b7f4552433732313a206f776e657220717565727920666f72206e6f6e657869737460008201527f656e7420746f6b656e0000000000000000000000000000000000000000000000602082015250565b6000614390602983613225565b915061439b82614334565b604082019050919050565b600060208201905081810360008301526143bf81614383565b9050919050565b7f4552433732313a2062616c616e636520717565727920666f7220746865207a6560008201527f726f206164647265737300000000000000000000000000000000000000000000602082015250565b6000614422602a83613225565b915061442d826143c6565b604082019050919050565b6000602082019050818103600083015261445181614415565b9050919050565b7f4f776e6572206f6e6c7900000000000000000000000000000000000000000000600082015250565b600061448e600a83613225565b915061449982614458565b602082019050919050565b600060208201905081810360008301526144bd81614481565b9050919050565b7f4e6f7420656e6f756768204e465473206c65667420746f207265736572766500600082015250565b60006144fa601f83613225565b9150614505826144c4565b602082019050919050565b60006020820190508181036000830152614529816144ed565b9050919050565b7f546f6b656e20696e76616c696421000000000000000000000000000000000000600082015250565b6000614566600e83613225565b915061457182614530565b602082019050919050565b6000602082019050818103600083015261459581614559565b9050919050565b7f596f7520646f6e2774206f776e20626f746820616e696d616c73000000000000600082015250565b60006145d2601a83613225565b91506145dd8261459c565b602082019050919050565b60006020820190508181036000830152614601816145c5565b9050919050565b7f43616e2774206272656564206567672100000000000000000000000000000000600082015250565b600061463e601083613225565b915061464982614608565b602082019050919050565b6000602082019050818103600083015261466d81614631565b9050919050565b7f43616e27742062726565642073616d6520616e696d616c210000000000000000600082015250565b60006146aa601883613225565b91506146b582614674565b602082019050919050565b600060208201905081810360008301526146d98161469d565b9050919050565b7f4f776e61626c653a206e6577206f776e657220697320746865207a65726f206160008201527f6464726573730000000000000000000000000000000000000000000000000000602082015250565b600061473c602683613225565b9150614747826146e0565b604082019050919050565b6000602082019050818103600083015261476b8161472f565b9050919050565b7f4552433732313a206f70657261746f7220717565727920666f72206e6f6e657860008201527f697374656e7420746f6b656e0000000000000000000000000000000000000000602082015250565b60006147ce602c83613225565b91506147d982614772565b604082019050919050565b600060208201905081810360008301526147fd816147c1565b9050919050565b7f4552433732313a207472616e736665722066726f6d20696e636f72726563742060008201527f6f776e6572000000000000000000000000000000000000000000000000000000602082015250565b6000614860602583613225565b915061486b82614804565b604082019050919050565b6000602082019050818103600083015261488f81614853565b9050919050565b7f4552433732313a207472616e7366657220746f20746865207a65726f2061646460008201527f7265737300000000000000000000000000000000000000000000000000000000602082015250565b60006148f2602483613225565b91506148fd82614896565b604082019050919050565b60006020820190508181036000830152614921816148e5565b9050919050565b6000614933826132d5565b915061493e836132d5565b9250817fffffffffffffffffffffffffffffffffffffffffffffffffffffffffffffffff048311821515161561497757614976613c66565b5b828202905092915050565b7f4552433732313a20617070726f766520746f2063616c6c657200000000000000600082015250565b60006149b8601983613225565b91506149c382614982565b602082019050919050565b600060208201905081810360008301526149e7816149ab565b9050919050565b7f4552433732313a207472616e7366657220746f206e6f6e20455243373231526560008201527f63656976657220696d706c656d656e7465720000000000000000000000000000602082015250565b6000614a4a603283613225565b9150614a55826149ee565b604082019050919050565b60006020820190508181036000830152614a7981614a3d565b9050919050565b600081519050919050565b600082825260208201905092915050565b6000614aa782614a80565b614ab18185614a8b565b9350614ac1818560208601613236565b614aca81613269565b840191505092915050565b6000608082019050614aea600083018761336a565b614af7602083018661336a565b614b046040830185613400565b8181036060830152614b168184614a9c565b905095945050505050565b600081519050614b308161318b565b92915050565b600060208284031215614b4c57614b4b613155565b5b6000614b5a84828501614b21565b91505092915050565b7f4552433732313a206d696e7420746f20746865207a65726f2061646472657373600082015250565b6000614b99602083613225565b9150614ba482614b63565b602082019050919050565b60006020820190508181036000830152614bc881614b8c565b9050919050565b7f4552433732313a20746f6b656e20616c7265616479206d696e74656400000000600082015250565b6000614c05601c83613225565b9150614c1082614bcf565b602082019050919050565b60006020820190508181036000830152614c3481614bf8565b9050919050565b7f4e487b7100000000000000000000000000000000000000000000000000000000600052603160045260246000fdfe68747470733a2f2f64726976652e676f6f676c652e636f6d2f75633f69643d3164686d51466972536d4d4f346149574d5262424c426f65795f62786f565a684c68747470733a2f2f64726976652e676f6f676c652e636f6d2f75633f69643d315a37716f68743650326a4d65646c4373665a42397a43466a38306c32626e627268747470733a2f2f64726976652e676f6f676c652e636f6d2f75633f69643d3156454c6e78556c424a576169424f6e667a3148414771424a6646387047366a3268747470733a2f2f64726976652e676f6f676c652e636f6d2f75633f69643d314d743663556a5070526e6151794732412d55667247544f546a674a586b71564c68747470733a2f2f64726976652e676f6f676c652e636f6d2f75633f69643d314249664932687832766a67706a4377534e334e4b393649567064366c5841593868747470733a2f2f64726976652e676f6f676c652e636f6d2f75633f69643d31644c47384a784978335f53714e656b39495254736c445f4a5a646e316170635a68747470733a2f2f64726976652e676f6f676c652e636f6d2f75633f69643d316b74766f386a4b6d5434444d6145366f694a3451533765617378417477355256a26469706673582212201c2f65c1e8cae6461627c5ce6724fc4d540dc686d9f52d614f7e2708a702b93a64736f6c634300080d0033",
  "immutableReferences": {},
  "source": "//SPDX-License-Identifier: MIT\npragma solidity ^0.8.13;\n\nimport \"@openzeppelin/contracts/utils/Counters.sol\";\nimport \"@openzeppelin/contracts/access/Ownable.sol\";\nimport \"@openzeppelin/contracts/utils/math/SafeMath.sol\";\nimport \"@openzeppelin/contracts/token/ERC721/extensions/ERC721Enumerable.sol\";\nimport \"@openzeppelin/contracts/token/ERC721/extensions/IERC721Metadata.sol\";\n\ncontract NFTCollection is ERC721Enumerable, Ownable {\n    using SafeMath for uint256;\n    using Counters for Counters.Counter;\n\n    Counters.Counter private _tokenIds;\n    // The max number of NFTs in the collection\n    uint public constant MAX_SUPPLY = 10000;\n    // The mint price for the collection\n    uint public constant PRICE = 0.00001 ether;\n    // The max number of mints per wallet\n    uint public constant MAX_PER_MINT = 5;\n    \n    address public tokenOwner;         // the owner of the initial tokens\n    address public coinAddress;\n\n    uint nonce = 0;\n\n    string public baseTokenURI;\n\n    constructor(string memory baseURI, string memory name, string memory symbol) ERC721(name, symbol) {\n        setBaseURI(baseURI);\n        tokenOwner = msg.sender;       // address of the token owner\n    }\n\n    function setCoinAddress(address _coinAddress) public {\n        require(msg.sender == tokenOwner, \"Owner only\");\n        coinAddress = _coinAddress;\n    }\n\n    function getOwnerAddress() public view returns (address) {\n        return tokenOwner;\n    }\n\n    function _baseURI() internal view virtual override returns (string memory) {\n        return baseTokenURI;\n    }\n\n    function setBaseURI(string memory _baseTokenURI) public onlyOwner {\n        baseTokenURI = _baseTokenURI;\n    }\n\n    function random() public returns(uint) {\n        nonce += 1;\n        return uint(keccak256(abi.encodePacked(nonce)));\n    }\n\n    function getNewTokenId(uint tokenNum) internal returns (uint) {\n        uint newTokenID = _tokenIds.current();\n        newTokenID <<= 16;\n        newTokenID += tokenNum;\n        return newTokenID;\n    }\n\n    function buyOneEgg(address buyer) external returns (uint) {\n        require(msg.sender == coinAddress, \"Sender is not coin contract address\");\n        uint tokenCounts = _tokenIds.current();\n        require(tokenCounts <= MAX_SUPPLY - 1, \"This collection is sold out!\");\n\n        uint newTokenID = getNewTokenId(0);\n\n        _safeMint(buyer, newTokenID);\n        _tokenIds.increment();\n        return newTokenID;\n    }\n\n    // return new token id\n    function hatchEgg(uint tokenId) public returns (uint) {\n        address owner = ownerOf(tokenId);\n        require(msg.sender == owner, \"Is not owner\");\n\n        uint tokenNum = tokenId & 0xf;\n        require(tokenNum == 0, \"Is not egg\");\n        uint newTokenNum = random() % 3 + 1;\n        uint newTokenId = getNewTokenId(newTokenNum);\n\n        _safeMint(msg.sender, newTokenId);\n        transferFrom(msg.sender, tokenOwner, tokenId);\n        _tokenIds.increment();\n        return newTokenId;\n    }\n\n    function yeetAnimal(uint tokenId) public {\n        transferFrom(msg.sender, tokenOwner, tokenId);\n    }\n\n    function getBreededTokenNum(uint tokenNum1, uint tokenNum2) internal returns (uint) {\n        if (tokenNum1 + tokenNum2 <= 3) {\n            return 4;\n        }\n        if (tokenNum1 + tokenNum2 == 5) {\n            return 6;\n        }\n        return 5;\n    }\n\n    function breed(uint tokenId1, uint tokenId2) public returns (uint) {\n        address owner1 = ownerOf(tokenId1);\n        address owner2 = ownerOf(tokenId2);\n        require(msg.sender == owner1, \"Is not owner\");\n        require(owner1 == owner2, \"You don't own both animals\");\n\n        uint tokenNum1 = tokenId1 & 0xf;\n        uint tokenNum2 = tokenId2 & 0xf;\n        require(tokenNum1 != 0 && tokenNum2 != 0, \"Can't breed egg!\");\n        require(tokenNum1 != tokenNum2, \"Can't breed same animal!\");\n        uint newTokenNum = getBreededTokenNum(tokenNum1, tokenNum2);\n        uint newTokenId = getNewTokenId(newTokenNum);\n\n        _safeMint(msg.sender, newTokenId);\n        _tokenIds.increment();\n        return newTokenId;\n    }\n\n    function mintNFTs(uint _count) public payable {\n        uint totalMinted = _tokenIds.current();\n\n        require(totalMinted.add(_count) <= MAX_SUPPLY, \"This collection is sold out!\");\n        require(_count >0 && _count <= MAX_PER_MINT, \"You have received the maximum amount of NFTs allowed.\");\n        require(msg.value >= PRICE.mul(_count), \"Not enough ether to purchase NFTs.\");\n\n        for (uint i = 0; i < _count; i++) {\n            _mintSingleNFT();\n        }\n    }\n\n    function _mintSingleNFT() private {\n        uint newTokenID = _tokenIds.current();\n        newTokenID <<= 16;\n        uint randomId = random();\n        newTokenID += randomId % 3;\n        _safeMint(msg.sender, newTokenID);\n        _tokenIds.increment();\n    }\n\n    function tokenURI(uint256 tokenId) public view override returns (string memory) {\n        uint tokenNum = tokenId & 0xf;\n        require(tokenNum >= 0 && tokenNum < 7, \"Token invalid!\");\n        if (tokenNum == 0) return \"https://drive.google.com/uc?id=1Z7qoht6P2jMedlCsfZB9zCFj80l2bnbr\";\n        if (tokenNum == 1) return \"https://drive.google.com/uc?id=1VELnxUlBJWaiBOnfz1HAGqBJfF8pG6j2\";\n        if (tokenNum == 2) return \"https://drive.google.com/uc?id=1BIfI2hx2vjgpjCwSN3NK96IVpd6lXAY8\";\n        if (tokenNum == 3) return \"https://drive.google.com/uc?id=1dLG8JxIx3_SqNek9IRTslD_JZdn1apcZ\";\n        if (tokenNum == 4) return \"https://drive.google.com/uc?id=1Mt6cUjPpRnaQyG2A-UfrGTOTjgJXkqVL\";\n        if (tokenNum == 5) return \"https://drive.google.com/uc?id=1ktvo8jKmT4DMaE6oiJ4QS7easxAtw5RV\";\n        if (tokenNum == 6) return \"https://drive.google.com/uc?id=1dhmQFirSmMO4aIWMRbBLBoey_bxoVZhL\";\n        return \"notEgg\";\n    }\n    \n    // Returns the ids of the NFTs owned by the wallet address\n    function tokensOfOwner(address _owner) external view returns (uint[] memory) {\n        uint tokenCount = balanceOf(_owner);\n        uint[] memory tokensId = new uint256[](tokenCount);\n\n        for (uint i = 0; i < tokenCount; i++) {\n            tokensId[i] = tokenOfOwnerByIndex(_owner, i);\n        }\n        return tokensId;\n    }\n    \n    // Withdraw the ether in the contract\n    function withdraw() public payable onlyOwner {\n        uint balance = address(this).balance;\n        require(balance > 0, \"No ether left to withdraw\");\n\n        (bool success, ) = (msg.sender).call{value: balance}(\"\");\n        require(success, \"Transfer failed.\");\n    }\n\n    // Reserve NFTs only for owner to mint for free\n    function reserveNFTs(uint _count) public onlyOwner {\n        uint totalMinted = _tokenIds.current();\n\n        require(totalMinted.add(_count) < MAX_SUPPLY, \"Not enough NFTs left to reserve\");\n\n        for (uint i = 0; i < _count; i++) {\n            _mintSingleNFT();\n        }\n    }\n}\n\n",
  "sourcePath": "/Users/sugina/Documents/Videos/2022:12:31Cryptozoo/nft-box/contracts/NFTCollection.sol",
  "compiler": {
    "name": "solc",
    "version": "0.8.13+commit.abaa5c0e.Emscripten.clang"
  },
  "schemaVersion": "3.4.11",
  "updatedAt": "2023-01-02T01:39:45.074Z",
  "networkType": "ethereum",
  "devdoc": {
    "kind": "dev",
    "methods": {
      "approve(address,uint256)": {
        "details": "See {IERC721-approve}."
      },
      "balanceOf(address)": {
        "details": "See {IERC721-balanceOf}."
      },
      "getApproved(uint256)": {
        "details": "See {IERC721-getApproved}."
      },
      "isApprovedForAll(address,address)": {
        "details": "See {IERC721-isApprovedForAll}."
      },
      "name()": {
        "details": "See {IERC721Metadata-name}."
      },
      "owner()": {
        "details": "Returns the address of the current owner."
      },
      "ownerOf(uint256)": {
        "details": "See {IERC721-ownerOf}."
      },
      "renounceOwnership()": {
        "details": "Leaves the contract without owner. It will not be possible to call `onlyOwner` functions anymore. Can only be called by the current owner. NOTE: Renouncing ownership will leave the contract without an owner, thereby removing any functionality that is only available to the owner."
      },
      "safeTransferFrom(address,address,uint256)": {
        "details": "See {IERC721-safeTransferFrom}."
      },
      "safeTransferFrom(address,address,uint256,bytes)": {
        "details": "See {IERC721-safeTransferFrom}."
      },
      "setApprovalForAll(address,bool)": {
        "details": "See {IERC721-setApprovalForAll}."
      },
      "supportsInterface(bytes4)": {
        "details": "See {IERC165-supportsInterface}."
      },
      "symbol()": {
        "details": "See {IERC721Metadata-symbol}."
      },
      "tokenByIndex(uint256)": {
        "details": "See {IERC721Enumerable-tokenByIndex}."
      },
      "tokenOfOwnerByIndex(address,uint256)": {
        "details": "See {IERC721Enumerable-tokenOfOwnerByIndex}."
      },
      "tokenURI(uint256)": {
        "details": "See {IERC721Metadata-tokenURI}."
      },
      "totalSupply()": {
        "details": "See {IERC721Enumerable-totalSupply}."
      },
      "transferFrom(address,address,uint256)": {
        "details": "See {IERC721-transferFrom}."
      },
      "transferOwnership(address)": {
        "details": "Transfers ownership of the contract to a new account (`newOwner`). Can only be called by the current owner."
      }
    },
    "version": 1
  },
  "userdoc": {
    "kind": "user",
    "methods": {},
    "version": 1
  }
}