{
  "contractName": "TheCoin",
  "abi": [
    {
      "inputs": [
        {
          "internalType": "string",
          "name": "name",
          "type": "string"
        },
        {
          "internalType": "string",
          "name": "symbol",
          "type": "string"
        }
      ],
      "stateMutability": "nonpayable",
      "type": "constructor"
    },
    {
      "anonymous": false,
      "inputs": [
        {
          "indexed": true,
          "internalType": "address",
          "name": "owner",
          "type": "address"
        },
        {
          "indexed": true,
          "internalType": "address",
          "name": "spender",
          "type": "address"
        },
        {
          "indexed": false,
          "internalType": "uint256",
          "name": "value",
          "type": "uint256"
        }
      ],
      "name": "Approval",
      "type": "event"
    },
    {
      "anonymous": false,
      "inputs": [
        {
          "indexed": true,
          "internalType": "address",
          "name": "previousOwner",
          "type": "address"
        },
        {
          "indexed": true,
          "internalType": "address",
          "name": "newOwner",
          "type": "address"
        }
      ],
      "name": "OwnershipTransferred",
      "type": "event"
    },
    {
      "anonymous": false,
      "inputs": [
        {
          "indexed": true,
          "internalType": "address",
          "name": "from",
          "type": "address"
        },
        {
          "indexed": true,
          "internalType": "address",
          "name": "to",
          "type": "address"
        },
        {
          "indexed": false,
          "internalType": "uint256",
          "name": "value",
          "type": "uint256"
        }
      ],
      "name": "Transfer",
      "type": "event"
    },
    {
      "inputs": [
        {
          "internalType": "address",
          "name": "owner",
          "type": "address"
        },
        {
          "internalType": "address",
          "name": "spender",
          "type": "address"
        }
      ],
      "name": "allowance",
      "outputs": [
        {
          "internalType": "uint256",
          "name": "",
          "type": "uint256"
        }
      ],
      "stateMutability": "view",
      "type": "function"
    },
    {
      "inputs": [
        {
          "internalType": "address",
          "name": "spender",
          "type": "address"
        },
        {
          "internalType": "uint256",
          "name": "amount",
          "type": "uint256"
        }
      ],
      "name": "approve",
      "outputs": [
        {
          "internalType": "bool",
          "name": "",
          "type": "bool"
        }
      ],
      "stateMutability": "nonpayable",
      "type": "function"
    },
    {
      "inputs": [
        {
          "internalType": "address",
          "name": "account",
          "type": "address"
        }
      ],
      "name": "balanceOf",
      "outputs": [
        {
          "internalType": "uint256",
          "name": "",
          "type": "uint256"
        }
      ],
      "stateMutability": "view",
      "type": "function"
    },
    {
      "inputs": [],
      "name": "coinSupply",
      "outputs": [
        {
          "internalType": "uint256",
          "name": "",
          "type": "uint256"
        }
      ],
      "stateMutability": "view",
      "type": "function"
    },
    {
      "inputs": [],
      "name": "coinsToBuyOneEgg",
      "outputs": [
        {
          "internalType": "uint256",
          "name": "",
          "type": "uint256"
        }
      ],
      "stateMutability": "view",
      "type": "function"
    },
    {
      "inputs": [],
      "name": "decimals",
      "outputs": [
        {
          "internalType": "uint8",
          "name": "",
          "type": "uint8"
        }
      ],
      "stateMutability": "view",
      "type": "function"
    },
    {
      "inputs": [
        {
          "internalType": "address",
          "name": "spender",
          "type": "address"
        },
        {
          "internalType": "uint256",
          "name": "subtractedValue",
          "type": "uint256"
        }
      ],
      "name": "decreaseAllowance",
      "outputs": [
        {
          "internalType": "bool",
          "name": "",
          "type": "bool"
        }
      ],
      "stateMutability": "nonpayable",
      "type": "function"
    },
    {
      "inputs": [
        {
          "internalType": "address",
          "name": "spender",
          "type": "address"
        },
        {
          "internalType": "uint256",
          "name": "addedValue",
          "type": "uint256"
        }
      ],
      "name": "increaseAllowance",
      "outputs": [
        {
          "internalType": "bool",
          "name": "",
          "type": "bool"
        }
      ],
      "stateMutability": "nonpayable",
      "type": "function"
    },
    {
      "inputs": [],
      "name": "name",
      "outputs": [
        {
          "internalType": "string",
          "name": "",
          "type": "string"
        }
      ],
      "stateMutability": "view",
      "type": "function"
    },
    {
      "inputs": [],
      "name": "owner",
      "outputs": [
        {
          "internalType": "address",
          "name": "",
          "type": "address"
        }
      ],
      "stateMutability": "view",
      "type": "function"
    },
    {
      "inputs": [],
      "name": "renounceOwnership",
      "outputs": [],
      "stateMutability": "nonpayable",
      "type": "function"
    },
    {
      "inputs": [],
      "name": "symbol",
      "outputs": [
        {
          "internalType": "string",
          "name": "",
          "type": "string"
        }
      ],
      "stateMutability": "view",
      "type": "function"
    },
    {
      "inputs": [],
      "name": "tokenOwner",
      "outputs": [
        {
          "internalType": "address",
          "name": "",
          "type": "address"
        }
      ],
      "stateMutability": "view",
      "type": "function"
    },
    {
      "inputs": [],
      "name": "totalSupply",
      "outputs": [
        {
          "internalType": "uint256",
          "name": "",
          "type": "uint256"
        }
      ],
      "stateMutability": "view",
      "type": "function"
    },
    {
      "inputs": [
        {
          "internalType": "address",
          "name": "to",
          "type": "address"
        },
        {
          "internalType": "uint256",
          "name": "amount",
          "type": "uint256"
        }
      ],
      "name": "transfer",
      "outputs": [
        {
          "internalType": "bool",
          "name": "",
          "type": "bool"
        }
      ],
      "stateMutability": "nonpayable",
      "type": "function"
    },
    {
      "inputs": [
        {
          "internalType": "address",
          "name": "from",
          "type": "address"
        },
        {
          "internalType": "address",
          "name": "to",
          "type": "address"
        },
        {
          "internalType": "uint256",
          "name": "amount",
          "type": "uint256"
        }
      ],
      "name": "transferFrom",
      "outputs": [
        {
          "internalType": "bool",
          "name": "",
          "type": "bool"
        }
      ],
      "stateMutability": "nonpayable",
      "type": "function"
    },
    {
      "inputs": [
        {
          "internalType": "address",
          "name": "newOwner",
          "type": "address"
        }
      ],
      "name": "transferOwnership",
      "outputs": [],
      "stateMutability": "nonpayable",
      "type": "function"
    },
    {
      "inputs": [],
      "name": "unitsOneEthCanBuy",
      "outputs": [
        {
          "internalType": "uint256",
          "name": "",
          "type": "uint256"
        }
      ],
      "stateMutability": "view",
      "type": "function"
    },
    {
      "stateMutability": "payable",
      "type": "receive"
    },
    {
      "inputs": [],
      "name": "buyEgg",
      "outputs": [
        {
          "internalType": "uint256",
          "name": "",
          "type": "uint256"
        }
      ],
      "stateMutability": "nonpayable",
      "type": "function"
    }
  ],
  "bytecode": "0x608060405260646006556005600755620186a06008553480156200002257600080fd5b50604051620027a2380380620027a28339818101604052810190620000489190620005ce565b818181600390805190602001906200006292919062000381565b5080600490805190602001906200007b92919062000381565b5050506200009e620000926200012860201b60201c565b6200013060201b60201c565b33600960006101000a81548173ffffffffffffffffffffffffffffffffffffffff021916908373ffffffffffffffffffffffffffffffffffffffff1602179055506200012033620000f4620001f660201b60201c565b60ff16600a620001059190620007e0565b60085462000114919062000831565b620001ff60201b60201c565b505062000a04565b600033905090565b6000600560009054906101000a900473ffffffffffffffffffffffffffffffffffffffff16905081600560006101000a81548173ffffffffffffffffffffffffffffffffffffffff021916908373ffffffffffffffffffffffffffffffffffffffff1602179055508173ffffffffffffffffffffffffffffffffffffffff168173ffffffffffffffffffffffffffffffffffffffff167f8be0079c531659141344cd1fd0a4f28419497f9722a3daafe3b4186f6b6457e060405160405180910390a35050565b60006012905090565b600073ffffffffffffffffffffffffffffffffffffffff168273ffffffffffffffffffffffffffffffffffffffff160362000271576040517f08c379a00000000000000000000000000000000000000000000000000000000081526004016200026890620008f3565b60405180910390fd5b62000285600083836200037760201b60201c565b806002600082825462000299919062000915565b92505081905550806000808473ffffffffffffffffffffffffffffffffffffffff1673ffffffffffffffffffffffffffffffffffffffff1681526020019081526020016000206000828254620002f0919062000915565b925050819055508173ffffffffffffffffffffffffffffffffffffffff16600073ffffffffffffffffffffffffffffffffffffffff167fddf252ad1be2c89b69c2b068fc378daa952ba7f163c4a11628f55a4df523b3ef8360405162000357919062000983565b60405180910390a362000373600083836200037c60201b60201c565b5050565b505050565b505050565b8280546200038f90620009cf565b90600052602060002090601f016020900481019282620003b35760008555620003ff565b82601f10620003ce57805160ff1916838001178555620003ff565b82800160010185558215620003ff579182015b82811115620003fe578251825591602001919060010190620003e1565b5b5090506200040e919062000412565b5090565b5b808211156200042d57600081600090555060010162000413565b5090565b6000604051905090565b600080fd5b600080fd5b600080fd5b600080fd5b6000601f19601f8301169050919050565b7f4e487b7100000000000000000000000000000000000000000000000000000000600052604160045260246000fd5b6200049a826200044f565b810181811067ffffffffffffffff82111715620004bc57620004bb62000460565b5b80604052505050565b6000620004d162000431565b9050620004df82826200048f565b919050565b600067ffffffffffffffff82111562000502576200050162000460565b5b6200050d826200044f565b9050602081019050919050565b60005b838110156200053a5780820151818401526020810190506200051d565b838111156200054a576000848401525b50505050565b6000620005676200056184620004e4565b620004c5565b9050828152602081018484840111156200058657620005856200044a565b5b620005938482856200051a565b509392505050565b600082601f830112620005b357620005b262000445565b5b8151620005c584826020860162000550565b91505092915050565b60008060408385031215620005e857620005e76200043b565b5b600083015167ffffffffffffffff81111562000609576200060862000440565b5b62000617858286016200059b565b925050602083015167ffffffffffffffff8111156200063b576200063a62000440565b5b62000649858286016200059b565b9150509250929050565b7f4e487b7100000000000000000000000000000000000000000000000000000000600052601160045260246000fd5b60008160011c9050919050565b6000808291508390505b6001851115620006e157808604811115620006b957620006b862000653565b5b6001851615620006c95780820291505b8081029050620006d98562000682565b945062000699565b94509492505050565b600082620006fc5760019050620007cf565b816200070c5760009050620007cf565b8160018114620007255760028114620007305762000766565b6001915050620007cf565b60ff84111562000745576200074462000653565b5b8360020a9150848211156200075f576200075e62000653565b5b50620007cf565b5060208310610133831016604e8410600b8410161715620007a05782820a9050838111156200079a576200079962000653565b5b620007cf565b620007af84848460016200068f565b92509050818404811115620007c957620007c862000653565b5b81810290505b9392505050565b6000819050919050565b6000620007ed82620007d6565b9150620007fa83620007d6565b9250620008297fffffffffffffffffffffffffffffffffffffffffffffffffffffffffffffffff8484620006ea565b905092915050565b60006200083e82620007d6565b91506200084b83620007d6565b9250817fffffffffffffffffffffffffffffffffffffffffffffffffffffffffffffffff048311821515161562000887576200088662000653565b5b828202905092915050565b600082825260208201905092915050565b7f45524332303a206d696e7420746f20746865207a65726f206164647265737300600082015250565b6000620008db601f8362000892565b9150620008e882620008a3565b602082019050919050565b600060208201905081810360008301526200090e81620008cc565b9050919050565b60006200092282620007d6565b91506200092f83620007d6565b9250827fffffffffffffffffffffffffffffffffffffffffffffffffffffffffffffffff0382111562000967576200096662000653565b5b828201905092915050565b6200097d81620007d6565b82525050565b60006020820190506200099a600083018462000972565b92915050565b7f4e487b7100000000000000000000000000000000000000000000000000000000600052602260045260246000fd5b60006002820490506001821680620009e857607f821691505b602082108103620009fe57620009fd620009a0565b5b50919050565b611d8e8062000a146000396000f3fe6080604052600436106101185760003560e01c806370a08231116100a0578063a3e6761011610064578063a3e676101461054d578063a457c2d714610578578063a9059cbb146105b5578063dd62ed3e146105f2578063f2fde38b1461062f576102ba565b806370a0823114610478578063715018a6146104b55780637d635502146104cc5780638da5cb5b146104f757806395d89b4114610522576102ba565b8063313ce567116100e7578063313ce5671461038f57806331f170c2146103ba57806337b95f21146103e5578063395093511461041057806365f2bc2e1461044d576102ba565b806306fdde03146102bf578063095ea7b3146102ea57806318160ddd1461032757806323b872dd14610352576102ba565b366102ba5760006006543461012d9190611319565b90508061015b600960009054906101000a900473ffffffffffffffffffffffffffffffffffffffff16610658565b101561019c576040517f08c379a0000000000000000000000000000000000000000000000000000000008152600401610193906113d0565b60405180910390fd5b6101c9600960009054906101000a900473ffffffffffffffffffffffffffffffffffffffff1633836106a0565b3373ffffffffffffffffffffffffffffffffffffffff16600960009054906101000a900473ffffffffffffffffffffffffffffffffffffffff1673ffffffffffffffffffffffffffffffffffffffff167fddf252ad1be2c89b69c2b068fc378daa952ba7f163c4a11628f55a4df523b3ef8360405161024891906113ff565b60405180910390a3600960009054906101000a900473ffffffffffffffffffffffffffffffffffffffff1673ffffffffffffffffffffffffffffffffffffffff166108fc349081150290604051600060405180830381858888f193505050501580156102b8573d6000803e3d6000fd5b005b600080fd5b3480156102cb57600080fd5b506102d461091f565b6040516102e191906114a2565b60405180910390f35b3480156102f657600080fd5b50610311600480360381019061030c9190611553565b6109b1565b60405161031e91906115ae565b60405180910390f35b34801561033357600080fd5b5061033c6109d4565b60405161034991906113ff565b60405180910390f35b34801561035e57600080fd5b50610379600480360381019061037491906115c9565b6109de565b60405161038691906115ae565b60405180910390f35b34801561039b57600080fd5b506103a4610a0d565b6040516103b19190611638565b60405180910390f35b3480156103c657600080fd5b506103cf610a16565b6040516103dc91906113ff565b60405180910390f35b3480156103f157600080fd5b506103fa610a1c565b60405161040791906113ff565b60405180910390f35b34801561041c57600080fd5b5061043760048036038101906104329190611553565b610a22565b60405161044491906115ae565b60405180910390f35b34801561045957600080fd5b50610462610a59565b60405161046f91906113ff565b60405180910390f35b34801561048457600080fd5b5061049f600480360381019061049a9190611653565b610658565b6040516104ac91906113ff565b60405180910390f35b3480156104c157600080fd5b506104ca610a5f565b005b3480156104d857600080fd5b506104e1610ae7565b6040516104ee91906113ff565b60405180910390f35b34801561050357600080fd5b5061050c610cb9565b604051610519919061168f565b60405180910390f35b34801561052e57600080fd5b50610537610ce3565b60405161054491906114a2565b60405180910390f35b34801561055957600080fd5b50610562610d75565b60405161056f919061168f565b60405180910390f35b34801561058457600080fd5b5061059f600480360381019061059a9190611553565b610d9b565b6040516105ac91906115ae565b60405180910390f35b3480156105c157600080fd5b506105dc60048036038101906105d79190611553565b610e12565b6040516105e991906115ae565b60405180910390f35b3480156105fe57600080fd5b50610619600480360381019061061491906116aa565b610e35565b60405161062691906113ff565b60405180910390f35b34801561063b57600080fd5b5061065660048036038101906106519190611653565b610ebc565b005b60008060008373ffffffffffffffffffffffffffffffffffffffff1673ffffffffffffffffffffffffffffffffffffffff168152602001908152602001600020549050919050565b600073ffffffffffffffffffffffffffffffffffffffff168373ffffffffffffffffffffffffffffffffffffffff160361070f576040517f08c379a00000000000000000000000000000000000000000000000000000000081526004016107069061175c565b60405180910390fd5b600073ffffffffffffffffffffffffffffffffffffffff168273ffffffffffffffffffffffffffffffffffffffff160361077e576040517f08c379a0000000000000000000000000000000000000000000000000000000008152600401610775906117ee565b60405180910390fd5b610789838383610fb3565b60008060008573ffffffffffffffffffffffffffffffffffffffff1673ffffffffffffffffffffffffffffffffffffffff1681526020019081526020016000205490508181101561080f576040517f08c379a000000000000000000000000000000000000000000000000000000000815260040161080690611880565b60405180910390fd5b8181036000808673ffffffffffffffffffffffffffffffffffffffff1673ffffffffffffffffffffffffffffffffffffffff16815260200190815260200160002081905550816000808573ffffffffffffffffffffffffffffffffffffffff1673ffffffffffffffffffffffffffffffffffffffff16815260200190815260200160002060008282546108a291906118a0565b925050819055508273ffffffffffffffffffffffffffffffffffffffff168473ffffffffffffffffffffffffffffffffffffffff167fddf252ad1be2c89b69c2b068fc378daa952ba7f163c4a11628f55a4df523b3ef8460405161090691906113ff565b60405180910390a3610919848484610fb8565b50505050565b60606003805461092e90611925565b80601f016020809104026020016040519081016040528092919081815260200182805461095a90611925565b80156109a75780601f1061097c576101008083540402835291602001916109a7565b820191906000526020600020905b81548152906001019060200180831161098a57829003601f168201915b5050505050905090565b6000806109bc610fbd565b90506109c9818585610fc5565b600191505092915050565b6000600254905090565b6000806109e9610fbd565b90506109f685828561118e565b610a018585856106a0565b60019150509392505050565b60006012905090565b60085481565b60075481565b600080610a2d610fbd565b9050610a4e818585610a3f8589610e35565b610a4991906118a0565b610fc5565b600191505092915050565b60065481565b610a67610fbd565b73ffffffffffffffffffffffffffffffffffffffff16610a85610cb9565b73ffffffffffffffffffffffffffffffffffffffff1614610adb576040517f08c379a0000000000000000000000000000000000000000000000000000000008152600401610ad2906119a2565b60405180910390fd5b610ae5600061121a565b565b6000610af1610fbd565b73ffffffffffffffffffffffffffffffffffffffff16610b0f610cb9565b73ffffffffffffffffffffffffffffffffffffffff1614610b65576040517f08c379a0000000000000000000000000000000000000000000000000000000008152600401610b5c906119a2565b60405180910390fd5b600754610b7133610658565b1015610bb2576040517f08c379a0000000000000000000000000000000000000000000000000000000008152600401610ba990611a0e565b60405180910390fd5b600754610bbe33610658565b610bc89190611a2e565b600a60003373ffffffffffffffffffffffffffffffffffffffff1673ffffffffffffffffffffffffffffffffffffffff16815260200190815260200160002081905550600754600854610c1b9190611a2e565b600881905550600960009054906101000a900473ffffffffffffffffffffffffffffffffffffffff1673ffffffffffffffffffffffffffffffffffffffff16637d6355026040518163ffffffff1660e01b81526004016020604051808303816000875af1158015610c90573d6000803e3d6000fd5b505050506040513d601f19601f82011682018060405250810190610cb49190611a77565b905090565b6000600560009054906101000a900473ffffffffffffffffffffffffffffffffffffffff16905090565b606060048054610cf290611925565b80601f0160208091040260200160405190810160405280929190818152602001828054610d1e90611925565b8015610d6b5780601f10610d4057610100808354040283529160200191610d6b565b820191906000526020600020905b815481529060010190602001808311610d4e57829003601f168201915b5050505050905090565b600960009054906101000a900473ffffffffffffffffffffffffffffffffffffffff1681565b600080610da6610fbd565b90506000610db48286610e35565b905083811015610df9576040517f08c379a0000000000000000000000000000000000000000000000000000000008152600401610df090611b16565b60405180910390fd5b610e068286868403610fc5565b60019250505092915050565b600080610e1d610fbd565b9050610e2a8185856106a0565b600191505092915050565b6000600160008473ffffffffffffffffffffffffffffffffffffffff1673ffffffffffffffffffffffffffffffffffffffff16815260200190815260200160002060008373ffffffffffffffffffffffffffffffffffffffff1673ffffffffffffffffffffffffffffffffffffffff16815260200190815260200160002054905092915050565b610ec4610fbd565b73ffffffffffffffffffffffffffffffffffffffff16610ee2610cb9565b73ffffffffffffffffffffffffffffffffffffffff1614610f38576040517f08c379a0000000000000000000000000000000000000000000000000000000008152600401610f2f906119a2565b60405180910390fd5b600073ffffffffffffffffffffffffffffffffffffffff168173ffffffffffffffffffffffffffffffffffffffff1603610fa7576040517f08c379a0000000000000000000000000000000000000000000000000000000008152600401610f9e90611ba8565b60405180910390fd5b610fb08161121a565b50565b505050565b505050565b600033905090565b600073ffffffffffffffffffffffffffffffffffffffff168373ffffffffffffffffffffffffffffffffffffffff1603611034576040517f08c379a000000000000000000000000000000000000000000000000000000000815260040161102b90611c3a565b60405180910390fd5b600073ffffffffffffffffffffffffffffffffffffffff168273ffffffffffffffffffffffffffffffffffffffff16036110a3576040517f08c379a000000000000000000000000000000000000000000000000000000000815260040161109a90611ccc565b60405180910390fd5b80600160008573ffffffffffffffffffffffffffffffffffffffff1673ffffffffffffffffffffffffffffffffffffffff16815260200190815260200160002060008473ffffffffffffffffffffffffffffffffffffffff1673ffffffffffffffffffffffffffffffffffffffff168152602001908152602001600020819055508173ffffffffffffffffffffffffffffffffffffffff168373ffffffffffffffffffffffffffffffffffffffff167f8c5be1e5ebec7d5bd14f71427d1e84f3dd0314c0f7b2291e5b200ac8c7c3b9258360405161118191906113ff565b60405180910390a3505050565b600061119a8484610e35565b90507fffffffffffffffffffffffffffffffffffffffffffffffffffffffffffffffff81146112145781811015611206576040517f08c379a00000000000000000000000000000000000000000000000000000000081526004016111fd90611d38565b60405180910390fd5b6112138484848403610fc5565b5b50505050565b6000600560009054906101000a900473ffffffffffffffffffffffffffffffffffffffff16905081600560006101000a81548173ffffffffffffffffffffffffffffffffffffffff021916908373ffffffffffffffffffffffffffffffffffffffff1602179055508173ffffffffffffffffffffffffffffffffffffffff168173ffffffffffffffffffffffffffffffffffffffff167f8be0079c531659141344cd1fd0a4f28419497f9722a3daafe3b4186f6b6457e060405160405180910390a35050565b6000819050919050565b7f4e487b7100000000000000000000000000000000000000000000000000000000600052601160045260246000fd5b6000611324826112e0565b915061132f836112e0565b9250817fffffffffffffffffffffffffffffffffffffffffffffffffffffffffffffffff0483118215151615611368576113676112ea565b5b828202905092915050565b600082825260208201905092915050565b7f4e6f7420656e6f75676820746f6b656e73000000000000000000000000000000600082015250565b60006113ba601183611373565b91506113c582611384565b602082019050919050565b600060208201905081810360008301526113e9816113ad565b9050919050565b6113f9816112e0565b82525050565b600060208201905061141460008301846113f0565b92915050565b600081519050919050565b60005b83811015611443578082015181840152602081019050611428565b83811115611452576000848401525b50505050565b6000601f19601f8301169050919050565b60006114748261141a565b61147e8185611373565b935061148e818560208601611425565b61149781611458565b840191505092915050565b600060208201905081810360008301526114bc8184611469565b905092915050565b600080fd5b600073ffffffffffffffffffffffffffffffffffffffff82169050919050565b60006114f4826114c9565b9050919050565b611504816114e9565b811461150f57600080fd5b50565b600081359050611521816114fb565b92915050565b611530816112e0565b811461153b57600080fd5b50565b60008135905061154d81611527565b92915050565b6000806040838503121561156a576115696114c4565b5b600061157885828601611512565b92505060206115898582860161153e565b9150509250929050565b60008115159050919050565b6115a881611593565b82525050565b60006020820190506115c3600083018461159f565b92915050565b6000806000606084860312156115e2576115e16114c4565b5b60006115f086828701611512565b935050602061160186828701611512565b92505060406116128682870161153e565b9150509250925092565b600060ff82169050919050565b6116328161161c565b82525050565b600060208201905061164d6000830184611629565b92915050565b600060208284031215611669576116686114c4565b5b600061167784828501611512565b91505092915050565b611689816114e9565b82525050565b60006020820190506116a46000830184611680565b92915050565b600080604083850312156116c1576116c06114c4565b5b60006116cf85828601611512565b92505060206116e085828601611512565b9150509250929050565b7f45524332303a207472616e736665722066726f6d20746865207a65726f20616460008201527f6472657373000000000000000000000000000000000000000000000000000000602082015250565b6000611746602583611373565b9150611751826116ea565b604082019050919050565b6000602082019050818103600083015261177581611739565b9050919050565b7f45524332303a207472616e7366657220746f20746865207a65726f206164647260008201527f6573730000000000000000000000000000000000000000000000000000000000602082015250565b60006117d8602383611373565b91506117e38261177c565b604082019050919050565b60006020820190508181036000830152611807816117cb565b9050919050565b7f45524332303a207472616e7366657220616d6f756e742065786365656473206260008201527f616c616e63650000000000000000000000000000000000000000000000000000602082015250565b600061186a602683611373565b91506118758261180e565b604082019050919050565b600060208201905081810360008301526118998161185d565b9050919050565b60006118ab826112e0565b91506118b6836112e0565b9250827fffffffffffffffffffffffffffffffffffffffffffffffffffffffffffffffff038211156118eb576118ea6112ea565b5b828201905092915050565b7f4e487b7100000000000000000000000000000000000000000000000000000000600052602260045260246000fd5b6000600282049050600182168061193d57607f821691505b6020821081036119505761194f6118f6565b5b50919050565b7f4f776e61626c653a2063616c6c6572206973206e6f7420746865206f776e6572600082015250565b600061198c602083611373565b915061199782611956565b602082019050919050565b600060208201905081810360008301526119bb8161197f565b9050919050565b7f4e6f7420656e6f75676820636f696e7300000000000000000000000000000000600082015250565b60006119f8601083611373565b9150611a03826119c2565b602082019050919050565b60006020820190508181036000830152611a27816119eb565b9050919050565b6000611a39826112e0565b9150611a44836112e0565b925082821015611a5757611a566112ea565b5b828203905092915050565b600081519050611a7181611527565b92915050565b600060208284031215611a8d57611a8c6114c4565b5b6000611a9b84828501611a62565b91505092915050565b7f45524332303a2064656372656173656420616c6c6f77616e63652062656c6f7760008201527f207a65726f000000000000000000000000000000000000000000000000000000602082015250565b6000611b00602583611373565b9150611b0b82611aa4565b604082019050919050565b60006020820190508181036000830152611b2f81611af3565b9050919050565b7f4f776e61626c653a206e6577206f776e657220697320746865207a65726f206160008201527f6464726573730000000000000000000000000000000000000000000000000000602082015250565b6000611b92602683611373565b9150611b9d82611b36565b604082019050919050565b60006020820190508181036000830152611bc181611b85565b9050919050565b7f45524332303a20617070726f76652066726f6d20746865207a65726f2061646460008201527f7265737300000000000000000000000000000000000000000000000000000000602082015250565b6000611c24602483611373565b9150611c2f82611bc8565b604082019050919050565b60006020820190508181036000830152611c5381611c17565b9050919050565b7f45524332303a20617070726f766520746f20746865207a65726f20616464726560008201527f7373000000000000000000000000000000000000000000000000000000000000602082015250565b6000611cb6602283611373565b9150611cc182611c5a565b604082019050919050565b60006020820190508181036000830152611ce581611ca9565b9050919050565b7f45524332303a20696e73756666696369656e7420616c6c6f77616e6365000000600082015250565b6000611d22601d83611373565b9150611d2d82611cec565b602082019050919050565b60006020820190508181036000830152611d5181611d15565b905091905056fea2646970667358221220d035064bf1ac6f45141736930f95dd44c0bdc7c45ec19f16b8ad3b8b9d4419f664736f6c634300080d0033",
  "immutableReferences": {},
  "source": "// SPDX-License-Identifier: MIT\npragma solidity ^0.8.13;\n\nimport \"@openzeppelin/contracts/token/ERC20/ERC20.sol\";\nimport \"./NFTCollection.sol\";\n\ncontract TheCoin is ERC20, Ownable {\n    uint256 public unitsOneEthCanBuy  = 100;\n    uint256 public coinsToBuyOneEgg = 5;\n    uint256 public coinSupply  = 100000;\n    address public tokenOwner;         // the owner of the token\n    mapping(address => uint256) private _balances;\n\n    constructor(string memory name, string memory symbol) ERC20(name, symbol) {\n        tokenOwner = msg.sender;       // address of the token owner\n        // Mint 100000 tokens to msg.sender\n        // Similar to how\n        // 1 dollar = 100 cents\n        // 1 token = 1 * (10 ** decimals)\n        _mint(msg.sender, coinSupply * 10 ** uint(decimals()));\n    }\n\n    // this function is called when someone sends ether to the \n    // token contract\n    receive() external payable {        \n        // msg.value (in Wei) is the ether sent to the \n        // token contract\n        // msg.sender is the account that sends the ether to the \n        // token contract\n        // amount is the token bought by the sender\n        uint256 amount = msg.value * unitsOneEthCanBuy;\n        // ensure you have enough tokens to sell\n        require(balanceOf(tokenOwner) >= amount, \n            \"Not enough tokens\");\n        // transfer the token to the buyer\n        _transfer(tokenOwner, msg.sender, amount);\n        // emit an event to inform of the transfer        \n        emit Transfer(tokenOwner, msg.sender, amount);\n        \n        // send the ether earned to the token owner\n        payable(tokenOwner).transfer(msg.value);\n    }\n\n    function buyEgg() public onlyOwner returns (uint) {\n        require(balanceOf(msg.sender) >= coinsToBuyOneEgg, \"Not enough coins\");\n\n        _balances[msg.sender] = balanceOf(msg.sender) - coinsToBuyOneEgg;\n        coinSupply = coinSupply - coinsToBuyOneEgg;\n        return NFTCollection(tokenOwner).buyEgg();\n    }\n}",
  "sourcePath": "/Users/sugina/Documents/Videos/2022:12:31Cryptozoo/nft-box/contracts/coin.sol",
  "compiler": {
    "name": "solc",
    "version": "0.8.13+commit.abaa5c0e.Emscripten.clang"
  },
  "schemaVersion": "3.4.11",
  "updatedAt": "2023-01-01T06:49:55.746Z",
  "devdoc": {
    "kind": "dev",
    "methods": {
      "allowance(address,address)": {
        "details": "See {IERC20-allowance}."
      },
      "approve(address,uint256)": {
        "details": "See {IERC20-approve}. NOTE: If `amount` is the maximum `uint256`, the allowance is not updated on `transferFrom`. This is semantically equivalent to an infinite approval. Requirements: - `spender` cannot be the zero address."
      },
      "balanceOf(address)": {
        "details": "See {IERC20-balanceOf}."
      },
      "decimals()": {
        "details": "Returns the number of decimals used to get its user representation. For example, if `decimals` equals `2`, a balance of `505` tokens should be displayed to a user as `5.05` (`505 / 10 ** 2`). Tokens usually opt for a value of 18, imitating the relationship between Ether and Wei. This is the value {ERC20} uses, unless this function is overridden; NOTE: This information is only used for _display_ purposes: it in no way affects any of the arithmetic of the contract, including {IERC20-balanceOf} and {IERC20-transfer}."
      },
      "decreaseAllowance(address,uint256)": {
        "details": "Atomically decreases the allowance granted to `spender` by the caller. This is an alternative to {approve} that can be used as a mitigation for problems described in {IERC20-approve}. Emits an {Approval} event indicating the updated allowance. Requirements: - `spender` cannot be the zero address. - `spender` must have allowance for the caller of at least `subtractedValue`."
      },
      "increaseAllowance(address,uint256)": {
        "details": "Atomically increases the allowance granted to `spender` by the caller. This is an alternative to {approve} that can be used as a mitigation for problems described in {IERC20-approve}. Emits an {Approval} event indicating the updated allowance. Requirements: - `spender` cannot be the zero address."
      },
      "name()": {
        "details": "Returns the name of the token."
      },
      "owner()": {
        "details": "Returns the address of the current owner."
      },
      "renounceOwnership()": {
        "details": "Leaves the contract without owner. It will not be possible to call `onlyOwner` functions anymore. Can only be called by the current owner. NOTE: Renouncing ownership will leave the contract without an owner, thereby removing any functionality that is only available to the owner."
      },
      "symbol()": {
        "details": "Returns the symbol of the token, usually a shorter version of the name."
      },
      "totalSupply()": {
        "details": "See {IERC20-totalSupply}."
      },
      "transfer(address,uint256)": {
        "details": "See {IERC20-transfer}. Requirements: - `to` cannot be the zero address. - the caller must have a balance of at least `amount`."
      },
      "transferFrom(address,address,uint256)": {
        "details": "See {IERC20-transferFrom}. Emits an {Approval} event indicating the updated allowance. This is not required by the EIP. See the note at the beginning of {ERC20}. NOTE: Does not update the allowance if the current allowance is the maximum `uint256`. Requirements: - `from` and `to` cannot be the zero address. - `from` must have a balance of at least `amount`. - the caller must have allowance for ``from``'s tokens of at least `amount`."
      },
      "transferOwnership(address)": {
        "details": "Transfers ownership of the contract to a new account (`newOwner`). Can only be called by the current owner."
      }
    },
    "version": 1
  },
  "userdoc": {
    "kind": "user",
    "methods": {},
    "version": 1
  }
}