{
  "contractName": "TheCoin",
  "abi": [
    {
      "inputs": [
        {
          "internalType": "string",
          "name": "name",
          "type": "string"
        },
        {
          "internalType": "string",
          "name": "symbol",
          "type": "string"
        }
      ],
      "stateMutability": "nonpayable",
      "type": "constructor"
    },
    {
      "anonymous": false,
      "inputs": [
        {
          "indexed": true,
          "internalType": "address",
          "name": "owner",
          "type": "address"
        },
        {
          "indexed": true,
          "internalType": "address",
          "name": "spender",
          "type": "address"
        },
        {
          "indexed": false,
          "internalType": "uint256",
          "name": "value",
          "type": "uint256"
        }
      ],
      "name": "Approval",
      "type": "event"
    },
    {
      "anonymous": false,
      "inputs": [
        {
          "indexed": true,
          "internalType": "address",
          "name": "previousOwner",
          "type": "address"
        },
        {
          "indexed": true,
          "internalType": "address",
          "name": "newOwner",
          "type": "address"
        }
      ],
      "name": "OwnershipTransferred",
      "type": "event"
    },
    {
      "anonymous": false,
      "inputs": [
        {
          "indexed": true,
          "internalType": "address",
          "name": "from",
          "type": "address"
        },
        {
          "indexed": true,
          "internalType": "address",
          "name": "to",
          "type": "address"
        },
        {
          "indexed": false,
          "internalType": "uint256",
          "name": "value",
          "type": "uint256"
        }
      ],
      "name": "Transfer",
      "type": "event"
    },
    {
      "inputs": [
        {
          "internalType": "address",
          "name": "owner",
          "type": "address"
        },
        {
          "internalType": "address",
          "name": "spender",
          "type": "address"
        }
      ],
      "name": "allowance",
      "outputs": [
        {
          "internalType": "uint256",
          "name": "",
          "type": "uint256"
        }
      ],
      "stateMutability": "view",
      "type": "function",
      "constant": true
    },
    {
      "inputs": [
        {
          "internalType": "address",
          "name": "spender",
          "type": "address"
        },
        {
          "internalType": "uint256",
          "name": "amount",
          "type": "uint256"
        }
      ],
      "name": "approve",
      "outputs": [
        {
          "internalType": "bool",
          "name": "",
          "type": "bool"
        }
      ],
      "stateMutability": "nonpayable",
      "type": "function"
    },
    {
      "inputs": [
        {
          "internalType": "address",
          "name": "account",
          "type": "address"
        }
      ],
      "name": "balanceOf",
      "outputs": [
        {
          "internalType": "uint256",
          "name": "",
          "type": "uint256"
        }
      ],
      "stateMutability": "view",
      "type": "function",
      "constant": true
    },
    {
      "inputs": [],
      "name": "coinSupply",
      "outputs": [
        {
          "internalType": "uint256",
          "name": "",
          "type": "uint256"
        }
      ],
      "stateMutability": "view",
      "type": "function",
      "constant": true
    },
    {
      "inputs": [],
      "name": "coinsToBuyOneEgg",
      "outputs": [
        {
          "internalType": "uint256",
          "name": "",
          "type": "uint256"
        }
      ],
      "stateMutability": "view",
      "type": "function",
      "constant": true
    },
    {
      "inputs": [],
      "name": "decimals",
      "outputs": [
        {
          "internalType": "uint8",
          "name": "",
          "type": "uint8"
        }
      ],
      "stateMutability": "view",
      "type": "function",
      "constant": true
    },
    {
      "inputs": [
        {
          "internalType": "address",
          "name": "spender",
          "type": "address"
        },
        {
          "internalType": "uint256",
          "name": "subtractedValue",
          "type": "uint256"
        }
      ],
      "name": "decreaseAllowance",
      "outputs": [
        {
          "internalType": "bool",
          "name": "",
          "type": "bool"
        }
      ],
      "stateMutability": "nonpayable",
      "type": "function"
    },
    {
      "inputs": [
        {
          "internalType": "address",
          "name": "spender",
          "type": "address"
        },
        {
          "internalType": "uint256",
          "name": "addedValue",
          "type": "uint256"
        }
      ],
      "name": "increaseAllowance",
      "outputs": [
        {
          "internalType": "bool",
          "name": "",
          "type": "bool"
        }
      ],
      "stateMutability": "nonpayable",
      "type": "function"
    },
    {
      "inputs": [
        {
          "internalType": "address",
          "name": "",
          "type": "address"
        }
      ],
      "name": "lastUpdateTime",
      "outputs": [
        {
          "internalType": "uint256",
          "name": "",
          "type": "uint256"
        }
      ],
      "stateMutability": "view",
      "type": "function",
      "constant": true
    },
    {
      "inputs": [],
      "name": "name",
      "outputs": [
        {
          "internalType": "string",
          "name": "",
          "type": "string"
        }
      ],
      "stateMutability": "view",
      "type": "function",
      "constant": true
    },
    {
      "inputs": [],
      "name": "nftAddress",
      "outputs": [
        {
          "internalType": "address",
          "name": "",
          "type": "address"
        }
      ],
      "stateMutability": "view",
      "type": "function",
      "constant": true
    },
    {
      "inputs": [],
      "name": "owner",
      "outputs": [
        {
          "internalType": "address",
          "name": "",
          "type": "address"
        }
      ],
      "stateMutability": "view",
      "type": "function",
      "constant": true
    },
    {
      "inputs": [],
      "name": "renounceOwnership",
      "outputs": [],
      "stateMutability": "nonpayable",
      "type": "function"
    },
    {
      "inputs": [],
      "name": "symbol",
      "outputs": [
        {
          "internalType": "string",
          "name": "",
          "type": "string"
        }
      ],
      "stateMutability": "view",
      "type": "function",
      "constant": true
    },
    {
      "inputs": [],
      "name": "tokenOwner",
      "outputs": [
        {
          "internalType": "address",
          "name": "",
          "type": "address"
        }
      ],
      "stateMutability": "view",
      "type": "function",
      "constant": true
    },
    {
      "inputs": [],
      "name": "totalSupply",
      "outputs": [
        {
          "internalType": "uint256",
          "name": "",
          "type": "uint256"
        }
      ],
      "stateMutability": "view",
      "type": "function",
      "constant": true
    },
    {
      "inputs": [
        {
          "internalType": "address",
          "name": "to",
          "type": "address"
        },
        {
          "internalType": "uint256",
          "name": "amount",
          "type": "uint256"
        }
      ],
      "name": "transfer",
      "outputs": [
        {
          "internalType": "bool",
          "name": "",
          "type": "bool"
        }
      ],
      "stateMutability": "nonpayable",
      "type": "function"
    },
    {
      "inputs": [
        {
          "internalType": "address",
          "name": "from",
          "type": "address"
        },
        {
          "internalType": "address",
          "name": "to",
          "type": "address"
        },
        {
          "internalType": "uint256",
          "name": "amount",
          "type": "uint256"
        }
      ],
      "name": "transferFrom",
      "outputs": [
        {
          "internalType": "bool",
          "name": "",
          "type": "bool"
        }
      ],
      "stateMutability": "nonpayable",
      "type": "function"
    },
    {
      "inputs": [
        {
          "internalType": "address",
          "name": "newOwner",
          "type": "address"
        }
      ],
      "name": "transferOwnership",
      "outputs": [],
      "stateMutability": "nonpayable",
      "type": "function"
    },
    {
      "inputs": [],
      "name": "unitsOneEthCanBuy",
      "outputs": [
        {
          "internalType": "uint256",
          "name": "",
          "type": "uint256"
        }
      ],
      "stateMutability": "view",
      "type": "function",
      "constant": true
    },
    {
      "stateMutability": "payable",
      "type": "receive",
      "payable": true
    },
    {
      "inputs": [
        {
          "internalType": "address",
          "name": "_nftAddress",
          "type": "address"
        }
      ],
      "name": "setNFTAddress",
      "outputs": [],
      "stateMutability": "nonpayable",
      "type": "function"
    },
    {
      "inputs": [],
      "name": "buyEgg",
      "outputs": [
        {
          "internalType": "uint256",
          "name": "",
          "type": "uint256"
        }
      ],
      "stateMutability": "nonpayable",
      "type": "function"
    },
    {
      "inputs": [],
      "name": "getPassiveIncome",
      "outputs": [],
      "stateMutability": "nonpayable",
      "type": "function"
    }
  ],
  "bytecode": "0x608060405260646006556005600755620186a06008553480156200002257600080fd5b5060405162002c8c38038062002c8c8339818101604052810190620000489190620005ce565b818181600390805190602001906200006292919062000381565b5080600490805190602001906200007b92919062000381565b5050506200009e620000926200012860201b60201c565b6200013060201b60201c565b33600960006101000a81548173ffffffffffffffffffffffffffffffffffffffff021916908373ffffffffffffffffffffffffffffffffffffffff1602179055506200012033620000f4620001f660201b60201c565b60ff16600a620001059190620007e0565b60085462000114919062000831565b620001ff60201b60201c565b505062000a04565b600033905090565b6000600560009054906101000a900473ffffffffffffffffffffffffffffffffffffffff16905081600560006101000a81548173ffffffffffffffffffffffffffffffffffffffff021916908373ffffffffffffffffffffffffffffffffffffffff1602179055508173ffffffffffffffffffffffffffffffffffffffff168173ffffffffffffffffffffffffffffffffffffffff167f8be0079c531659141344cd1fd0a4f28419497f9722a3daafe3b4186f6b6457e060405160405180910390a35050565b60006012905090565b600073ffffffffffffffffffffffffffffffffffffffff168273ffffffffffffffffffffffffffffffffffffffff160362000271576040517f08c379a00000000000000000000000000000000000000000000000000000000081526004016200026890620008f3565b60405180910390fd5b62000285600083836200037760201b60201c565b806002600082825462000299919062000915565b92505081905550806000808473ffffffffffffffffffffffffffffffffffffffff1673ffffffffffffffffffffffffffffffffffffffff1681526020019081526020016000206000828254620002f0919062000915565b925050819055508173ffffffffffffffffffffffffffffffffffffffff16600073ffffffffffffffffffffffffffffffffffffffff167fddf252ad1be2c89b69c2b068fc378daa952ba7f163c4a11628f55a4df523b3ef8360405162000357919062000983565b60405180910390a362000373600083836200037c60201b60201c565b5050565b505050565b505050565b8280546200038f90620009cf565b90600052602060002090601f016020900481019282620003b35760008555620003ff565b82601f10620003ce57805160ff1916838001178555620003ff565b82800160010185558215620003ff579182015b82811115620003fe578251825591602001919060010190620003e1565b5b5090506200040e919062000412565b5090565b5b808211156200042d57600081600090555060010162000413565b5090565b6000604051905090565b600080fd5b600080fd5b600080fd5b600080fd5b6000601f19601f8301169050919050565b7f4e487b7100000000000000000000000000000000000000000000000000000000600052604160045260246000fd5b6200049a826200044f565b810181811067ffffffffffffffff82111715620004bc57620004bb62000460565b5b80604052505050565b6000620004d162000431565b9050620004df82826200048f565b919050565b600067ffffffffffffffff82111562000502576200050162000460565b5b6200050d826200044f565b9050602081019050919050565b60005b838110156200053a5780820151818401526020810190506200051d565b838111156200054a576000848401525b50505050565b6000620005676200056184620004e4565b620004c5565b9050828152602081018484840111156200058657620005856200044a565b5b620005938482856200051a565b509392505050565b600082601f830112620005b357620005b262000445565b5b8151620005c584826020860162000550565b91505092915050565b60008060408385031215620005e857620005e76200043b565b5b600083015167ffffffffffffffff81111562000609576200060862000440565b5b62000617858286016200059b565b925050602083015167ffffffffffffffff8111156200063b576200063a62000440565b5b62000649858286016200059b565b9150509250929050565b7f4e487b7100000000000000000000000000000000000000000000000000000000600052601160045260246000fd5b60008160011c9050919050565b6000808291508390505b6001851115620006e157808604811115620006b957620006b862000653565b5b6001851615620006c95780820291505b8081029050620006d98562000682565b945062000699565b94509492505050565b600082620006fc5760019050620007cf565b816200070c5760009050620007cf565b8160018114620007255760028114620007305762000766565b6001915050620007cf565b60ff84111562000745576200074462000653565b5b8360020a9150848211156200075f576200075e62000653565b5b50620007cf565b5060208310610133831016604e8410600b8410161715620007a05782820a9050838111156200079a576200079962000653565b5b620007cf565b620007af84848460016200068f565b92509050818404811115620007c957620007c862000653565b5b81810290505b9392505050565b6000819050919050565b6000620007ed82620007d6565b9150620007fa83620007d6565b9250620008297fffffffffffffffffffffffffffffffffffffffffffffffffffffffffffffffff8484620006ea565b905092915050565b60006200083e82620007d6565b91506200084b83620007d6565b9250817fffffffffffffffffffffffffffffffffffffffffffffffffffffffffffffffff048311821515161562000887576200088662000653565b5b828202905092915050565b600082825260208201905092915050565b7f45524332303a206d696e7420746f20746865207a65726f206164647265737300600082015250565b6000620008db601f8362000892565b9150620008e882620008a3565b602082019050919050565b600060208201905081810360008301526200090e81620008cc565b9050919050565b60006200092282620007d6565b91506200092f83620007d6565b9250827fffffffffffffffffffffffffffffffffffffffffffffffffffffffffffffffff0382111562000967576200096662000653565b5b828201905092915050565b6200097d81620007d6565b82525050565b60006020820190506200099a600083018462000972565b92915050565b7f4e487b7100000000000000000000000000000000000000000000000000000000600052602260045260246000fd5b60006002820490506001821680620009e857607f821691505b602082108103620009fe57620009fd620009a0565b5b50919050565b6122788062000a146000396000f3fe6080604052600436106101445760003560e01c806365f2bc2e116100b657806395d89b411161006f57806395d89b41146105f6578063a3e6761014610621578063a457c2d71461064c578063a9059cbb14610689578063dd62ed3e146106c6578063f2fde38b14610703576102e6565b806365f2bc2e146104f857806369d037381461052357806370a082311461054c578063715018a6146105895780637d635502146105a05780638da5cb5b146105cb576102e6565b80632ce9aead116101085780632ce9aead146103d2578063313ce5671461040f57806331f170c21461043a57806337b95f211461046557806339509351146104905780635bf8633a146104cd576102e6565b806306fdde03146102eb578063095ea7b3146103165780630ce20cbb1461035357806318160ddd1461036a57806323b872dd14610395576102e6565b366102e65760006006543461015991906115d1565b905080610187600960009054906101000a900473ffffffffffffffffffffffffffffffffffffffff1661072c565b10156101c8576040517f08c379a00000000000000000000000000000000000000000000000000000000081526004016101bf90611688565b60405180910390fd5b6101f5600960009054906101000a900473ffffffffffffffffffffffffffffffffffffffff163383610774565b3373ffffffffffffffffffffffffffffffffffffffff16600960009054906101000a900473ffffffffffffffffffffffffffffffffffffffff1673ffffffffffffffffffffffffffffffffffffffff167fddf252ad1be2c89b69c2b068fc378daa952ba7f163c4a11628f55a4df523b3ef8360405161027491906116b7565b60405180910390a3600960009054906101000a900473ffffffffffffffffffffffffffffffffffffffff1673ffffffffffffffffffffffffffffffffffffffff166108fc349081150290604051600060405180830381858888f193505050501580156102e4573d6000803e3d6000fd5b005b600080fd5b3480156102f757600080fd5b506103006109f3565b60405161030d919061175a565b60405180910390f35b34801561032257600080fd5b5061033d6004803603810190610338919061181a565b610a85565b60405161034a9190611875565b60405180910390f35b34801561035f57600080fd5b50610368610aa8565b005b34801561037657600080fd5b5061037f610c61565b60405161038c91906116b7565b60405180910390f35b3480156103a157600080fd5b506103bc60048036038101906103b79190611890565b610c6b565b6040516103c99190611875565b60405180910390f35b3480156103de57600080fd5b506103f960048036038101906103f491906118e3565b610c9a565b60405161040691906116b7565b60405180910390f35b34801561041b57600080fd5b50610424610cb2565b604051610431919061192c565b60405180910390f35b34801561044657600080fd5b5061044f610cbb565b60405161045c91906116b7565b60405180910390f35b34801561047157600080fd5b5061047a610cc1565b60405161048791906116b7565b60405180910390f35b34801561049c57600080fd5b506104b760048036038101906104b2919061181a565b610cc7565b6040516104c49190611875565b60405180910390f35b3480156104d957600080fd5b506104e2610cfe565b6040516104ef9190611956565b60405180910390f35b34801561050457600080fd5b5061050d610d24565b60405161051a91906116b7565b60405180910390f35b34801561052f57600080fd5b5061054a600480360381019061054591906118e3565b610d2a565b005b34801561055857600080fd5b50610573600480360381019061056e91906118e3565b61072c565b60405161058091906116b7565b60405180910390f35b34801561059557600080fd5b5061059e610dc8565b005b3480156105ac57600080fd5b506105b5610e50565b6040516105c291906116b7565b60405180910390f35b3480156105d757600080fd5b506105e0610f71565b6040516105ed9190611956565b60405180910390f35b34801561060257600080fd5b5061060b610f9b565b604051610618919061175a565b60405180910390f35b34801561062d57600080fd5b5061063661102d565b6040516106439190611956565b60405180910390f35b34801561065857600080fd5b50610673600480360381019061066e919061181a565b611053565b6040516106809190611875565b60405180910390f35b34801561069557600080fd5b506106b060048036038101906106ab919061181a565b6110ca565b6040516106bd9190611875565b60405180910390f35b3480156106d257600080fd5b506106ed60048036038101906106e89190611971565b6110ed565b6040516106fa91906116b7565b60405180910390f35b34801561070f57600080fd5b5061072a600480360381019061072591906118e3565b611174565b005b60008060008373ffffffffffffffffffffffffffffffffffffffff1673ffffffffffffffffffffffffffffffffffffffff168152602001908152602001600020549050919050565b600073ffffffffffffffffffffffffffffffffffffffff168373ffffffffffffffffffffffffffffffffffffffff16036107e3576040517f08c379a00000000000000000000000000000000000000000000000000000000081526004016107da90611a23565b60405180910390fd5b600073ffffffffffffffffffffffffffffffffffffffff168273ffffffffffffffffffffffffffffffffffffffff1603610852576040517f08c379a000000000000000000000000000000000000000000000000000000000815260040161084990611ab5565b60405180910390fd5b61085d83838361126b565b60008060008573ffffffffffffffffffffffffffffffffffffffff1673ffffffffffffffffffffffffffffffffffffffff168152602001908152602001600020549050818110156108e3576040517f08c379a00000000000000000000000000000000000000000000000000000000081526004016108da90611b47565b60405180910390fd5b8181036000808673ffffffffffffffffffffffffffffffffffffffff1673ffffffffffffffffffffffffffffffffffffffff16815260200190815260200160002081905550816000808573ffffffffffffffffffffffffffffffffffffffff1673ffffffffffffffffffffffffffffffffffffffff16815260200190815260200160002060008282546109769190611b67565b925050819055508273ffffffffffffffffffffffffffffffffffffffff168473ffffffffffffffffffffffffffffffffffffffff167fddf252ad1be2c89b69c2b068fc378daa952ba7f163c4a11628f55a4df523b3ef846040516109da91906116b7565b60405180910390a36109ed848484611270565b50505050565b606060038054610a0290611bec565b80601f0160208091040260200160405190810160405280929190818152602001828054610a2e90611bec565b8015610a7b5780601f10610a5057610100808354040283529160200191610a7b565b820191906000526020600020905b815481529060010190602001808311610a5e57829003601f168201915b5050505050905090565b600080610a90611275565b9050610a9d81858561127d565b600191505092915050565b60004290506000600b60003373ffffffffffffffffffffffffffffffffffffffff1673ffffffffffffffffffffffffffffffffffffffff168152602001908152602001600020549050600a8183610aff9190611c1d565b11610b3f576040517f08c379a0000000000000000000000000000000000000000000000000000000008152600401610b3690611cc3565b60405180910390fd5b6000600a60009054906101000a900473ffffffffffffffffffffffffffffffffffffffff1673ffffffffffffffffffffffffffffffffffffffff16638462151c336040518263ffffffff1660e01b8152600401610b9c9190611956565b600060405180830381865afa158015610bb9573d6000803e3d6000fd5b505050506040513d6000823e3d601f19601f82011682018060405250810190610be29190611e40565b9050600081519050610c17600960009054906101000a900473ffffffffffffffffffffffffffffffffffffffff163383610774565b83600b60003373ffffffffffffffffffffffffffffffffffffffff1673ffffffffffffffffffffffffffffffffffffffff1681526020019081526020016000208190555050505050565b6000600254905090565b600080610c76611275565b9050610c83858285611446565b610c8e858585610774565b60019150509392505050565b600b6020528060005260406000206000915090505481565b60006012905090565b60085481565b60075481565b600080610cd2611275565b9050610cf3818585610ce485896110ed565b610cee9190611b67565b61127d565b600191505092915050565b600a60009054906101000a900473ffffffffffffffffffffffffffffffffffffffff1681565b60065481565b600960009054906101000a900473ffffffffffffffffffffffffffffffffffffffff1673ffffffffffffffffffffffffffffffffffffffff163373ffffffffffffffffffffffffffffffffffffffff1614610d8457600080fd5b80600a60006101000a81548173ffffffffffffffffffffffffffffffffffffffff021916908373ffffffffffffffffffffffffffffffffffffffff16021790555050565b610dd0611275565b73ffffffffffffffffffffffffffffffffffffffff16610dee610f71565b73ffffffffffffffffffffffffffffffffffffffff1614610e44576040517f08c379a0000000000000000000000000000000000000000000000000000000008152600401610e3b90611ed5565b60405180910390fd5b610e4e60006114d2565b565b6000600754610e5e3361072c565b1015610e9f576040517f08c379a0000000000000000000000000000000000000000000000000000000008152600401610e9690611f41565b60405180910390fd5b610ece33600960009054906101000a900473ffffffffffffffffffffffffffffffffffffffff16600754610774565b600a60009054906101000a900473ffffffffffffffffffffffffffffffffffffffff1673ffffffffffffffffffffffffffffffffffffffff166358db1fb4336040518263ffffffff1660e01b8152600401610f299190611956565b6020604051808303816000875af1158015610f48573d6000803e3d6000fd5b505050506040513d601f19601f82011682018060405250810190610f6c9190611f61565b905090565b6000600560009054906101000a900473ffffffffffffffffffffffffffffffffffffffff16905090565b606060048054610faa90611bec565b80601f0160208091040260200160405190810160405280929190818152602001828054610fd690611bec565b80156110235780601f10610ff857610100808354040283529160200191611023565b820191906000526020600020905b81548152906001019060200180831161100657829003601f168201915b5050505050905090565b600960009054906101000a900473ffffffffffffffffffffffffffffffffffffffff1681565b60008061105e611275565b9050600061106c82866110ed565b9050838110156110b1576040517f08c379a00000000000000000000000000000000000000000000000000000000081526004016110a890612000565b60405180910390fd5b6110be828686840361127d565b60019250505092915050565b6000806110d5611275565b90506110e2818585610774565b600191505092915050565b6000600160008473ffffffffffffffffffffffffffffffffffffffff1673ffffffffffffffffffffffffffffffffffffffff16815260200190815260200160002060008373ffffffffffffffffffffffffffffffffffffffff1673ffffffffffffffffffffffffffffffffffffffff16815260200190815260200160002054905092915050565b61117c611275565b73ffffffffffffffffffffffffffffffffffffffff1661119a610f71565b73ffffffffffffffffffffffffffffffffffffffff16146111f0576040517f08c379a00000000000000000000000000000000000000000000000000000000081526004016111e790611ed5565b60405180910390fd5b600073ffffffffffffffffffffffffffffffffffffffff168173ffffffffffffffffffffffffffffffffffffffff160361125f576040517f08c379a000000000000000000000000000000000000000000000000000000000815260040161125690612092565b60405180910390fd5b611268816114d2565b50565b505050565b505050565b600033905090565b600073ffffffffffffffffffffffffffffffffffffffff168373ffffffffffffffffffffffffffffffffffffffff16036112ec576040517f08c379a00000000000000000000000000000000000000000000000000000000081526004016112e390612124565b60405180910390fd5b600073ffffffffffffffffffffffffffffffffffffffff168273ffffffffffffffffffffffffffffffffffffffff160361135b576040517f08c379a0000000000000000000000000000000000000000000000000000000008152600401611352906121b6565b60405180910390fd5b80600160008573ffffffffffffffffffffffffffffffffffffffff1673ffffffffffffffffffffffffffffffffffffffff16815260200190815260200160002060008473ffffffffffffffffffffffffffffffffffffffff1673ffffffffffffffffffffffffffffffffffffffff168152602001908152602001600020819055508173ffffffffffffffffffffffffffffffffffffffff168373ffffffffffffffffffffffffffffffffffffffff167f8c5be1e5ebec7d5bd14f71427d1e84f3dd0314c0f7b2291e5b200ac8c7c3b9258360405161143991906116b7565b60405180910390a3505050565b600061145284846110ed565b90507fffffffffffffffffffffffffffffffffffffffffffffffffffffffffffffffff81146114cc57818110156114be576040517f08c379a00000000000000000000000000000000000000000000000000000000081526004016114b590612222565b60405180910390fd5b6114cb848484840361127d565b5b50505050565b6000600560009054906101000a900473ffffffffffffffffffffffffffffffffffffffff16905081600560006101000a81548173ffffffffffffffffffffffffffffffffffffffff021916908373ffffffffffffffffffffffffffffffffffffffff1602179055508173ffffffffffffffffffffffffffffffffffffffff168173ffffffffffffffffffffffffffffffffffffffff167f8be0079c531659141344cd1fd0a4f28419497f9722a3daafe3b4186f6b6457e060405160405180910390a35050565b6000819050919050565b7f4e487b7100000000000000000000000000000000000000000000000000000000600052601160045260246000fd5b60006115dc82611598565b91506115e783611598565b9250817fffffffffffffffffffffffffffffffffffffffffffffffffffffffffffffffff04831182151516156116205761161f6115a2565b5b828202905092915050565b600082825260208201905092915050565b7f4e6f7420656e6f75676820746f6b656e73000000000000000000000000000000600082015250565b600061167260118361162b565b915061167d8261163c565b602082019050919050565b600060208201905081810360008301526116a181611665565b9050919050565b6116b181611598565b82525050565b60006020820190506116cc60008301846116a8565b92915050565b600081519050919050565b60005b838110156116fb5780820151818401526020810190506116e0565b8381111561170a576000848401525b50505050565b6000601f19601f8301169050919050565b600061172c826116d2565b611736818561162b565b93506117468185602086016116dd565b61174f81611710565b840191505092915050565b600060208201905081810360008301526117748184611721565b905092915050565b6000604051905090565b600080fd5b600080fd5b600073ffffffffffffffffffffffffffffffffffffffff82169050919050565b60006117bb82611790565b9050919050565b6117cb816117b0565b81146117d657600080fd5b50565b6000813590506117e8816117c2565b92915050565b6117f781611598565b811461180257600080fd5b50565b600081359050611814816117ee565b92915050565b6000806040838503121561183157611830611786565b5b600061183f858286016117d9565b925050602061185085828601611805565b9150509250929050565b60008115159050919050565b61186f8161185a565b82525050565b600060208201905061188a6000830184611866565b92915050565b6000806000606084860312156118a9576118a8611786565b5b60006118b7868287016117d9565b93505060206118c8868287016117d9565b92505060406118d986828701611805565b9150509250925092565b6000602082840312156118f9576118f8611786565b5b6000611907848285016117d9565b91505092915050565b600060ff82169050919050565b61192681611910565b82525050565b6000602082019050611941600083018461191d565b92915050565b611950816117b0565b82525050565b600060208201905061196b6000830184611947565b92915050565b6000806040838503121561198857611987611786565b5b6000611996858286016117d9565b92505060206119a7858286016117d9565b9150509250929050565b7f45524332303a207472616e736665722066726f6d20746865207a65726f20616460008201527f6472657373000000000000000000000000000000000000000000000000000000602082015250565b6000611a0d60258361162b565b9150611a18826119b1565b604082019050919050565b60006020820190508181036000830152611a3c81611a00565b9050919050565b7f45524332303a207472616e7366657220746f20746865207a65726f206164647260008201527f6573730000000000000000000000000000000000000000000000000000000000602082015250565b6000611a9f60238361162b565b9150611aaa82611a43565b604082019050919050565b60006020820190508181036000830152611ace81611a92565b9050919050565b7f45524332303a207472616e7366657220616d6f756e742065786365656473206260008201527f616c616e63650000000000000000000000000000000000000000000000000000602082015250565b6000611b3160268361162b565b9150611b3c82611ad5565b604082019050919050565b60006020820190508181036000830152611b6081611b24565b9050919050565b6000611b7282611598565b9150611b7d83611598565b9250827fffffffffffffffffffffffffffffffffffffffffffffffffffffffffffffffff03821115611bb257611bb16115a2565b5b828201905092915050565b7f4e487b7100000000000000000000000000000000000000000000000000000000600052602260045260246000fd5b60006002820490506001821680611c0457607f821691505b602082108103611c1757611c16611bbd565b5b50919050565b6000611c2882611598565b9150611c3383611598565b925082821015611c4657611c456115a2565b5b828203905092915050565b7f546f6f20736f6f6e20746f20676574207061737369766520696e636f6d65206160008201527f6761696e21000000000000000000000000000000000000000000000000000000602082015250565b6000611cad60258361162b565b9150611cb882611c51565b604082019050919050565b60006020820190508181036000830152611cdc81611ca0565b9050919050565b600080fd5b7f4e487b7100000000000000000000000000000000000000000000000000000000600052604160045260246000fd5b611d2082611710565b810181811067ffffffffffffffff82111715611d3f57611d3e611ce8565b5b80604052505050565b6000611d5261177c565b9050611d5e8282611d17565b919050565b600067ffffffffffffffff821115611d7e57611d7d611ce8565b5b602082029050602081019050919050565b600080fd5b600081519050611da3816117ee565b92915050565b6000611dbc611db784611d63565b611d48565b90508083825260208201905060208402830185811115611ddf57611dde611d8f565b5b835b81811015611e085780611df48882611d94565b845260208401935050602081019050611de1565b5050509392505050565b600082601f830112611e2757611e26611ce3565b5b8151611e37848260208601611da9565b91505092915050565b600060208284031215611e5657611e55611786565b5b600082015167ffffffffffffffff811115611e7457611e7361178b565b5b611e8084828501611e12565b91505092915050565b7f4f776e61626c653a2063616c6c6572206973206e6f7420746865206f776e6572600082015250565b6000611ebf60208361162b565b9150611eca82611e89565b602082019050919050565b60006020820190508181036000830152611eee81611eb2565b9050919050565b7f4e6f7420656e6f75676820636f696e7300000000000000000000000000000000600082015250565b6000611f2b60108361162b565b9150611f3682611ef5565b602082019050919050565b60006020820190508181036000830152611f5a81611f1e565b9050919050565b600060208284031215611f7757611f76611786565b5b6000611f8584828501611d94565b91505092915050565b7f45524332303a2064656372656173656420616c6c6f77616e63652062656c6f7760008201527f207a65726f000000000000000000000000000000000000000000000000000000602082015250565b6000611fea60258361162b565b9150611ff582611f8e565b604082019050919050565b6000602082019050818103600083015261201981611fdd565b9050919050565b7f4f776e61626c653a206e6577206f776e657220697320746865207a65726f206160008201527f6464726573730000000000000000000000000000000000000000000000000000602082015250565b600061207c60268361162b565b915061208782612020565b604082019050919050565b600060208201905081810360008301526120ab8161206f565b9050919050565b7f45524332303a20617070726f76652066726f6d20746865207a65726f2061646460008201527f7265737300000000000000000000000000000000000000000000000000000000602082015250565b600061210e60248361162b565b9150612119826120b2565b604082019050919050565b6000602082019050818103600083015261213d81612101565b9050919050565b7f45524332303a20617070726f766520746f20746865207a65726f20616464726560008201527f7373000000000000000000000000000000000000000000000000000000000000602082015250565b60006121a060228361162b565b91506121ab82612144565b604082019050919050565b600060208201905081810360008301526121cf81612193565b9050919050565b7f45524332303a20696e73756666696369656e7420616c6c6f77616e6365000000600082015250565b600061220c601d8361162b565b9150612217826121d6565b602082019050919050565b6000602082019050818103600083015261223b816121ff565b905091905056fea26469706673582212200803ab202b15c8f6a8f5db2b0bef6b95800c11d6fc2e3eb721094d0520014f3a64736f6c634300080d0033",
  "immutableReferences": {},
  "source": "// SPDX-License-Identifier: MIT\npragma solidity ^0.8.13;\n\nimport \"@openzeppelin/contracts/token/ERC20/ERC20.sol\";\nimport \"./NFTCollection.sol\";\n\ncontract TheCoin is ERC20, Ownable {\n    uint256 public unitsOneEthCanBuy  = 100;\n    uint256 public coinsToBuyOneEgg = 5;\n    uint256 public coinSupply  = 100000;\n    address public tokenOwner;         // the owner of the token\n    address public nftAddress;\n    mapping(address => uint) public lastUpdateTime;\n\n    constructor(string memory name, string memory symbol) ERC20(name, symbol) {\n        tokenOwner = msg.sender;       // address of the token owner\n        // Mint 100000 tokens to msg.sender\n        // Similar to how\n        // 1 dollar = 100 cents\n        // 1 token = 1 * (10 ** decimals)\n        _mint(msg.sender, coinSupply * 10 ** uint(decimals()));\n    }\n\n    // this function is called when someone sends ether to the \n    // token contract\n    receive() external payable {        \n        // msg.value (in Wei) is the ether sent to the \n        // token contract\n        // msg.sender is the account that sends the ether to the \n        // token contract\n        // amount is the token bought by the sender\n        uint256 amount = msg.value * unitsOneEthCanBuy;\n        // ensure you have enough tokens to sell\n        require(balanceOf(tokenOwner) >= amount, \n            \"Not enough tokens\");\n        // transfer the token to the buyer\n        _transfer(tokenOwner, msg.sender, amount);\n        // emit an event to inform of the transfer        \n        emit Transfer(tokenOwner, msg.sender, amount);\n        \n        // send the ether earned to the token owner\n        payable(tokenOwner).transfer(msg.value);\n    }\n\n    function setNFTAddress(address _nftAddress) public {\n        require(msg.sender == tokenOwner);\n        nftAddress = _nftAddress;\n    }\n\n    function buyEgg() public returns (uint) {\n        require(balanceOf(msg.sender) >= coinsToBuyOneEgg, \"Not enough coins\");\n\n        _transfer(msg.sender, tokenOwner, coinsToBuyOneEgg);\n        return NFTCollection(nftAddress).buyOneEgg(msg.sender);\n    }\n\n    function getPassiveIncome() public {\n        uint curTime = block.timestamp;\n        uint lastTime = lastUpdateTime[msg.sender];\n        require(curTime - lastTime > 10, \"Too soon to get passive income again!\");\n\n        uint[] memory tokens = NFTCollection(nftAddress).tokensOfOwner(msg.sender);\n        uint tokenSize = tokens.length;\n        _transfer(tokenOwner, msg.sender, tokenSize);\n        lastUpdateTime[msg.sender] = curTime;\n    }\n}",
  "sourcePath": "/Users/sugina/Documents/Videos/2022:12:31Cryptozoo/nft-box/contracts/TheCoin.sol",
  "compiler": {
    "name": "solc",
    "version": "0.8.13+commit.abaa5c0e.Emscripten.clang"
  },
  "schemaVersion": "3.4.11",
  "updatedAt": "2023-01-02T01:39:45.092Z",
  "networkType": "ethereum",
  "devdoc": {
    "kind": "dev",
    "methods": {
      "allowance(address,address)": {
        "details": "See {IERC20-allowance}."
      },
      "approve(address,uint256)": {
        "details": "See {IERC20-approve}. NOTE: If `amount` is the maximum `uint256`, the allowance is not updated on `transferFrom`. This is semantically equivalent to an infinite approval. Requirements: - `spender` cannot be the zero address."
      },
      "balanceOf(address)": {
        "details": "See {IERC20-balanceOf}."
      },
      "decimals()": {
        "details": "Returns the number of decimals used to get its user representation. For example, if `decimals` equals `2`, a balance of `505` tokens should be displayed to a user as `5.05` (`505 / 10 ** 2`). Tokens usually opt for a value of 18, imitating the relationship between Ether and Wei. This is the value {ERC20} uses, unless this function is overridden; NOTE: This information is only used for _display_ purposes: it in no way affects any of the arithmetic of the contract, including {IERC20-balanceOf} and {IERC20-transfer}."
      },
      "decreaseAllowance(address,uint256)": {
        "details": "Atomically decreases the allowance granted to `spender` by the caller. This is an alternative to {approve} that can be used as a mitigation for problems described in {IERC20-approve}. Emits an {Approval} event indicating the updated allowance. Requirements: - `spender` cannot be the zero address. - `spender` must have allowance for the caller of at least `subtractedValue`."
      },
      "increaseAllowance(address,uint256)": {
        "details": "Atomically increases the allowance granted to `spender` by the caller. This is an alternative to {approve} that can be used as a mitigation for problems described in {IERC20-approve}. Emits an {Approval} event indicating the updated allowance. Requirements: - `spender` cannot be the zero address."
      },
      "name()": {
        "details": "Returns the name of the token."
      },
      "owner()": {
        "details": "Returns the address of the current owner."
      },
      "renounceOwnership()": {
        "details": "Leaves the contract without owner. It will not be possible to call `onlyOwner` functions anymore. Can only be called by the current owner. NOTE: Renouncing ownership will leave the contract without an owner, thereby removing any functionality that is only available to the owner."
      },
      "symbol()": {
        "details": "Returns the symbol of the token, usually a shorter version of the name."
      },
      "totalSupply()": {
        "details": "See {IERC20-totalSupply}."
      },
      "transfer(address,uint256)": {
        "details": "See {IERC20-transfer}. Requirements: - `to` cannot be the zero address. - the caller must have a balance of at least `amount`."
      },
      "transferFrom(address,address,uint256)": {
        "details": "See {IERC20-transferFrom}. Emits an {Approval} event indicating the updated allowance. This is not required by the EIP. See the note at the beginning of {ERC20}. NOTE: Does not update the allowance if the current allowance is the maximum `uint256`. Requirements: - `from` and `to` cannot be the zero address. - `from` must have a balance of at least `amount`. - the caller must have allowance for ``from``'s tokens of at least `amount`."
      },
      "transferOwnership(address)": {
        "details": "Transfers ownership of the contract to a new account (`newOwner`). Can only be called by the current owner."
      }
    },
    "version": 1
  },
  "userdoc": {
    "kind": "user",
    "methods": {},
    "version": 1
  }
}